{
  "address": "0xe7f1725E7734CE288F8367e1Bb143E90bb3F0512",
  "abi": [
    {
      "inputs": [
        {
          "internalType": "address",
          "name": "linkAddress",
          "type": "address"
        },
        {
          "internalType": "address",
          "name": "wrapperAddress",
          "type": "address"
        },
        {
          "internalType": "string[3]",
          "name": "tokenURIs",
          "type": "string[3]"
        },
        {
          "internalType": "uint256",
          "name": "mintFee",
          "type": "uint256"
        }
      ],
      "stateMutability": "nonpayable",
      "type": "constructor"
    },
    {
      "inputs": [
        {
          "internalType": "address",
          "name": "sender",
          "type": "address"
        },
        {
          "internalType": "uint256",
          "name": "tokenId",
          "type": "uint256"
        },
        {
          "internalType": "address",
          "name": "owner",
          "type": "address"
        }
      ],
      "name": "ERC721IncorrectOwner",
      "type": "error"
    },
    {
      "inputs": [
        {
          "internalType": "address",
          "name": "operator",
          "type": "address"
        },
        {
          "internalType": "uint256",
          "name": "tokenId",
          "type": "uint256"
        }
      ],
      "name": "ERC721InsufficientApproval",
      "type": "error"
    },
    {
      "inputs": [
        {
          "internalType": "address",
          "name": "approver",
          "type": "address"
        }
      ],
      "name": "ERC721InvalidApprover",
      "type": "error"
    },
    {
      "inputs": [
        {
          "internalType": "address",
          "name": "operator",
          "type": "address"
        }
      ],
      "name": "ERC721InvalidOperator",
      "type": "error"
    },
    {
      "inputs": [
        {
          "internalType": "address",
          "name": "owner",
          "type": "address"
        }
      ],
      "name": "ERC721InvalidOwner",
      "type": "error"
    },
    {
      "inputs": [
        {
          "internalType": "address",
          "name": "receiver",
          "type": "address"
        }
      ],
      "name": "ERC721InvalidReceiver",
      "type": "error"
    },
    {
      "inputs": [
        {
          "internalType": "address",
          "name": "sender",
          "type": "address"
        }
      ],
      "name": "ERC721InvalidSender",
      "type": "error"
    },
    {
      "inputs": [
        {
          "internalType": "uint256",
          "name": "tokenId",
          "type": "uint256"
        }
      ],
      "name": "ERC721NonexistentToken",
      "type": "error"
    },
    {
      "inputs": [
        {
          "internalType": "address",
          "name": "owner",
          "type": "address"
        }
      ],
      "name": "OwnableInvalidOwner",
      "type": "error"
    },
    {
      "inputs": [
        {
          "internalType": "address",
          "name": "account",
          "type": "address"
        }
      ],
      "name": "OwnableUnauthorizedAccount",
      "type": "error"
    },
    {
      "inputs": [],
      "name": "RandomIpfsNft_NeedMoreETHSent",
      "type": "error"
    },
    {
      "inputs": [],
      "name": "RandomIpfsNft_RangeOutOfBounds",
      "type": "error"
    },
    {
      "inputs": [],
      "name": "RandomIpfsNft_TransferFailed",
      "type": "error"
    },
    {
      "anonymous": false,
      "inputs": [
        {
          "indexed": true,
          "internalType": "address",
          "name": "owner",
          "type": "address"
        },
        {
          "indexed": true,
          "internalType": "address",
          "name": "approved",
          "type": "address"
        },
        {
          "indexed": true,
          "internalType": "uint256",
          "name": "tokenId",
          "type": "uint256"
        }
      ],
      "name": "Approval",
      "type": "event"
    },
    {
      "anonymous": false,
      "inputs": [
        {
          "indexed": true,
          "internalType": "address",
          "name": "owner",
          "type": "address"
        },
        {
          "indexed": true,
          "internalType": "address",
          "name": "operator",
          "type": "address"
        },
        {
          "indexed": false,
          "internalType": "bool",
          "name": "approved",
          "type": "bool"
        }
      ],
      "name": "ApprovalForAll",
      "type": "event"
    },
    {
      "anonymous": false,
      "inputs": [
        {
          "indexed": false,
          "internalType": "uint256",
          "name": "_fromTokenId",
          "type": "uint256"
        },
        {
          "indexed": false,
          "internalType": "uint256",
          "name": "_toTokenId",
          "type": "uint256"
        }
      ],
      "name": "BatchMetadataUpdate",
      "type": "event"
    },
    {
      "anonymous": false,
      "inputs": [
        {
          "indexed": false,
          "internalType": "uint256",
          "name": "_tokenId",
          "type": "uint256"
        }
      ],
      "name": "MetadataUpdate",
      "type": "event"
    },
    {
      "anonymous": false,
      "inputs": [
        {
          "indexed": false,
          "internalType": "enum RandomIpfsNft.Rarity",
          "name": "rarity",
          "type": "uint8"
        },
        {
          "indexed": false,
          "internalType": "address",
          "name": "minter",
          "type": "address"
        }
      ],
      "name": "NFTMinted",
      "type": "event"
    },
    {
      "anonymous": false,
      "inputs": [
        {
          "indexed": true,
          "internalType": "uint256",
          "name": "requestId",
          "type": "uint256"
        },
        {
          "indexed": false,
          "internalType": "address",
          "name": "requester",
          "type": "address"
        }
      ],
      "name": "NFTRequested",
      "type": "event"
    },
    {
      "anonymous": false,
      "inputs": [
        {
          "indexed": true,
          "internalType": "address",
          "name": "previousOwner",
          "type": "address"
        },
        {
          "indexed": true,
          "internalType": "address",
          "name": "newOwner",
          "type": "address"
        }
      ],
      "name": "OwnershipTransferred",
      "type": "event"
    },
    {
      "anonymous": false,
      "inputs": [
        {
          "indexed": true,
          "internalType": "address",
          "name": "from",
          "type": "address"
        },
        {
          "indexed": true,
          "internalType": "address",
          "name": "to",
          "type": "address"
        },
        {
          "indexed": true,
          "internalType": "uint256",
          "name": "tokenId",
          "type": "uint256"
        }
      ],
      "name": "Transfer",
      "type": "event"
    },
    {
      "inputs": [
        {
          "internalType": "address",
          "name": "to",
          "type": "address"
        },
        {
          "internalType": "uint256",
          "name": "tokenId",
          "type": "uint256"
        }
      ],
      "name": "approve",
      "outputs": [],
      "stateMutability": "nonpayable",
      "type": "function"
    },
    {
      "inputs": [
        {
          "internalType": "address",
          "name": "owner",
          "type": "address"
        }
      ],
      "name": "balanceOf",
      "outputs": [
        {
          "internalType": "uint256",
          "name": "",
          "type": "uint256"
        }
      ],
      "stateMutability": "view",
      "type": "function"
    },
    {
      "inputs": [
        {
          "internalType": "uint256",
          "name": "tokenId",
          "type": "uint256"
        }
      ],
      "name": "getApproved",
      "outputs": [
        {
          "internalType": "address",
          "name": "",
          "type": "address"
        }
      ],
      "stateMutability": "view",
      "type": "function"
    },
    {
      "inputs": [],
      "name": "getChanceArray",
      "outputs": [
        {
          "internalType": "uint256[3]",
          "name": "",
          "type": "uint256[3]"
        }
      ],
      "stateMutability": "pure",
      "type": "function"
    },
    {
      "inputs": [],
      "name": "getMintFee",
      "outputs": [
        {
          "internalType": "uint256",
          "name": "",
          "type": "uint256"
        }
      ],
      "stateMutability": "view",
      "type": "function"
    },
    {
      "inputs": [
        {
          "internalType": "uint256",
          "name": "moddedRng",
          "type": "uint256"
        }
      ],
      "name": "getRarityFromModdedRng",
      "outputs": [
        {
          "internalType": "enum RandomIpfsNft.Rarity",
          "name": "",
          "type": "uint8"
        }
      ],
      "stateMutability": "pure",
      "type": "function"
    },
    {
      "inputs": [],
      "name": "getTokenCounter",
      "outputs": [
        {
          "internalType": "uint256",
          "name": "",
          "type": "uint256"
        }
      ],
      "stateMutability": "view",
      "type": "function"
    },
    {
      "inputs": [
        {
          "internalType": "uint256",
          "name": "index",
          "type": "uint256"
        }
      ],
      "name": "getTokenURIs",
      "outputs": [
        {
          "internalType": "string",
          "name": "",
          "type": "string"
        }
      ],
      "stateMutability": "view",
      "type": "function"
    },
    {
      "inputs": [
        {
          "internalType": "address",
          "name": "owner",
          "type": "address"
        },
        {
          "internalType": "address",
          "name": "operator",
          "type": "address"
        }
      ],
      "name": "isApprovedForAll",
      "outputs": [
        {
          "internalType": "bool",
          "name": "",
          "type": "bool"
        }
      ],
      "stateMutability": "view",
      "type": "function"
    },
    {
      "inputs": [],
      "name": "name",
      "outputs": [
        {
          "internalType": "string",
          "name": "",
          "type": "string"
        }
      ],
      "stateMutability": "view",
      "type": "function"
    },
    {
      "inputs": [],
      "name": "owner",
      "outputs": [
        {
          "internalType": "address",
          "name": "",
          "type": "address"
        }
      ],
      "stateMutability": "view",
      "type": "function"
    },
    {
      "inputs": [
        {
          "internalType": "uint256",
          "name": "tokenId",
          "type": "uint256"
        }
      ],
      "name": "ownerOf",
      "outputs": [
        {
          "internalType": "address",
          "name": "",
          "type": "address"
        }
      ],
      "stateMutability": "view",
      "type": "function"
    },
    {
      "inputs": [
        {
          "internalType": "uint256",
          "name": "_requestId",
          "type": "uint256"
        },
        {
          "internalType": "uint256[]",
          "name": "_randomWords",
          "type": "uint256[]"
        }
      ],
      "name": "rawFulfillRandomWords",
      "outputs": [],
      "stateMutability": "nonpayable",
      "type": "function"
    },
    {
      "inputs": [],
      "name": "renounceOwnership",
      "outputs": [],
      "stateMutability": "nonpayable",
      "type": "function"
    },
    {
      "inputs": [],
      "name": "requestNft",
      "outputs": [
        {
          "internalType": "uint256",
          "name": "requestId",
          "type": "uint256"
        }
      ],
      "stateMutability": "payable",
      "type": "function"
    },
    {
      "inputs": [
        {
          "internalType": "address",
          "name": "from",
          "type": "address"
        },
        {
          "internalType": "address",
          "name": "to",
          "type": "address"
        },
        {
          "internalType": "uint256",
          "name": "tokenId",
          "type": "uint256"
        }
      ],
      "name": "safeTransferFrom",
      "outputs": [],
      "stateMutability": "nonpayable",
      "type": "function"
    },
    {
      "inputs": [
        {
          "internalType": "address",
          "name": "from",
          "type": "address"
        },
        {
          "internalType": "address",
          "name": "to",
          "type": "address"
        },
        {
          "internalType": "uint256",
          "name": "tokenId",
          "type": "uint256"
        },
        {
          "internalType": "bytes",
          "name": "data",
          "type": "bytes"
        }
      ],
      "name": "safeTransferFrom",
      "outputs": [],
      "stateMutability": "nonpayable",
      "type": "function"
    },
    {
      "inputs": [
        {
          "internalType": "address",
          "name": "operator",
          "type": "address"
        },
        {
          "internalType": "bool",
          "name": "approved",
          "type": "bool"
        }
      ],
      "name": "setApprovalForAll",
      "outputs": [],
      "stateMutability": "nonpayable",
      "type": "function"
    },
    {
      "inputs": [
        {
          "internalType": "bytes4",
          "name": "interfaceId",
          "type": "bytes4"
        }
      ],
      "name": "supportsInterface",
      "outputs": [
        {
          "internalType": "bool",
          "name": "",
          "type": "bool"
        }
      ],
      "stateMutability": "view",
      "type": "function"
    },
    {
      "inputs": [],
      "name": "symbol",
      "outputs": [
        {
          "internalType": "string",
          "name": "",
          "type": "string"
        }
      ],
      "stateMutability": "view",
      "type": "function"
    },
    {
      "inputs": [
        {
          "internalType": "uint256",
          "name": "tokenId",
          "type": "uint256"
        }
      ],
      "name": "tokenURI",
      "outputs": [
        {
          "internalType": "string",
          "name": "",
          "type": "string"
        }
      ],
      "stateMutability": "view",
      "type": "function"
    },
    {
      "inputs": [
        {
          "internalType": "address",
          "name": "from",
          "type": "address"
        },
        {
          "internalType": "address",
          "name": "to",
          "type": "address"
        },
        {
          "internalType": "uint256",
          "name": "tokenId",
          "type": "uint256"
        }
      ],
      "name": "transferFrom",
      "outputs": [],
      "stateMutability": "nonpayable",
      "type": "function"
    },
    {
      "inputs": [
        {
          "internalType": "address",
          "name": "newOwner",
          "type": "address"
        }
      ],
      "name": "transferOwnership",
      "outputs": [],
      "stateMutability": "nonpayable",
      "type": "function"
    },
    {
      "inputs": [],
      "name": "withdrawETH",
      "outputs": [],
      "stateMutability": "nonpayable",
      "type": "function"
    }
  ],
  "transactionHash": "0x6a6f04a2b562ffea7654264875022f76617bee799eab9f2ac59fa9ce0778e42a",
  "args": [
    "0x779877A7B0D9E8603169DdbD7836e478b4624789",
    "0x195f15F2d49d693cE265b4fB0fdDbE15b1850Cc1",
    [
      "ipfs://QmZYmH5iDbD6v3U2ixoVAjioSzvWJszDzYdbeCLquGSpVm",
      "ipfs://QmYQC5aGZu2PTH8XzbJrbDnvhj3gVs7ya33H9mqUNvST3d",
      "ipfs://QmaVkBn2tKmjbhphU7eyztbvSQU5EXDdqRyXZtRhSGgJGo"
    ],
    "10000000000000000"
  ],
  "numDeployments": 1,
  "solcInputHash": "4b327bc18883d4b8993967abeb8be34a",
  "bytecode": "0x60e060405234801561001057600080fd5b50604051613ee9380380613ee98339818101604052810190610032919061064f565b336040518060400160405280600f81526020017f52616e646f6d2049504653204e465400000000000000000000000000000000008152506040518060400160405280600381526020017f52494e000000000000000000000000000000000000000000000000000000000081525086868173ffffffffffffffffffffffffffffffffffffffff1660808173ffffffffffffffffffffffffffffffffffffffff16815250508073ffffffffffffffffffffffffffffffffffffffff1660a08173ffffffffffffffffffffffffffffffffffffffff16815250505050816000908161011a91906108e9565b50806001908161012a91906108e9565b505050600073ffffffffffffffffffffffffffffffffffffffff168173ffffffffffffffffffffffffffffffffffffffff160361019f5760006040517f1e4fbdf700000000000000000000000000000000000000000000000000000000815260040161019691906109ca565b60405180910390fd5b6101ae816101d260201b60201c565b508160099060036101c0929190610298565b508060c08181525050505050506109e5565b6000600760009054906101000a900473ffffffffffffffffffffffffffffffffffffffff16905081600760006101000a81548173ffffffffffffffffffffffffffffffffffffffff021916908373ffffffffffffffffffffffffffffffffffffffff1602179055508173ffffffffffffffffffffffffffffffffffffffff168173ffffffffffffffffffffffffffffffffffffffff167f8be0079c531659141344cd1fd0a4f28419497f9722a3daafe3b4186f6b6457e060405160405180910390a35050565b8280548282559060005260206000209081019282156102e0579160200282015b828111156102df5782518290816102cf91906108e9565b50916020019190600101906102b8565b5b5090506102ed91906102f1565b5090565b5b8082111561031157600081816103089190610315565b506001016102f2565b5090565b5080546103219061070c565b6000825580601f106103335750610352565b601f0160209004906000526020600020908101906103519190610355565b5b50565b5b8082111561036e576000816000905550600101610356565b5090565b6000604051905090565b600080fd5b600080fd5b600073ffffffffffffffffffffffffffffffffffffffff82169050919050565b60006103b182610386565b9050919050565b6103c1816103a6565b81146103cc57600080fd5b50565b6000815190506103de816103b8565b92915050565b600080fd5b6000601f19601f8301169050919050565b7f4e487b7100000000000000000000000000000000000000000000000000000000600052604160045260246000fd5b610432826103e9565b810181811067ffffffffffffffff82111715610451576104506103fa565b5b80604052505050565b6000610464610372565b90506104708282610429565b919050565b600067ffffffffffffffff8211156104905761048f6103fa565b5b602082029050919050565b600080fd5b600080fd5b600067ffffffffffffffff8211156104c0576104bf6103fa565b5b6104c9826103e9565b9050602081019050919050565b60005b838110156104f45780820151818401526020810190506104d9565b60008484015250505050565b600061051361050e846104a5565b61045a565b90508281526020810184848401111561052f5761052e6104a0565b5b61053a8482856104d6565b509392505050565b600082601f830112610557576105566103e4565b5b8151610567848260208601610500565b91505092915050565b600061058361057e84610475565b61045a565b9050806020840283018581111561059d5761059c61049b565b5b835b818110156105e457805167ffffffffffffffff8111156105c2576105c16103e4565b5b8086016105cf8982610542565b8552602085019450505060208101905061059f565b5050509392505050565b600082601f830112610603576106026103e4565b5b6003610610848285610570565b91505092915050565b6000819050919050565b61062c81610619565b811461063757600080fd5b50565b60008151905061064981610623565b92915050565b600080600080608085870312156106695761066861037c565b5b6000610677878288016103cf565b9450506020610688878288016103cf565b935050604085015167ffffffffffffffff8111156106a9576106a8610381565b5b6106b5878288016105ee565b92505060606106c68782880161063a565b91505092959194509250565b600081519050919050565b7f4e487b7100000000000000000000000000000000000000000000000000000000600052602260045260246000fd5b6000600282049050600182168061072457607f821691505b602082108103610737576107366106dd565b5b50919050565b60008190508160005260206000209050919050565b60006020601f8301049050919050565b600082821b905092915050565b60006008830261079f7fffffffffffffffffffffffffffffffffffffffffffffffffffffffffffffffff82610762565b6107a98683610762565b95508019841693508086168417925050509392505050565b6000819050919050565b60006107e66107e16107dc84610619565b6107c1565b610619565b9050919050565b6000819050919050565b610800836107cb565b61081461080c826107ed565b84845461076f565b825550505050565b600090565b61082961081c565b6108348184846107f7565b505050565b5b818110156108585761084d600082610821565b60018101905061083a565b5050565b601f82111561089d5761086e8161073d565b61087784610752565b81016020851015610886578190505b61089a61089285610752565b830182610839565b50505b505050565b600082821c905092915050565b60006108c0600019846008026108a2565b1980831691505092915050565b60006108d983836108af565b9150826002028217905092915050565b6108f2826106d2565b67ffffffffffffffff81111561090b5761090a6103fa565b5b610915825461070c565b61092082828561085c565b600060209050601f8311600181146109535760008415610941578287015190505b61094b85826108cd565b8655506109b3565b601f1984166109618661073d565b60005b8281101561098957848901518255600182019150602085019450602081019050610964565b868310156109a657848901516109a2601f8916826108af565b8355505b6001600288020188555050505b505050505050565b6109c4816103a6565b82525050565b60006020820190506109df60008301846109bb565b92915050565b60805160a05160c0516134b9610a3060003960008181610a510152610c270152600081816106cc01528181611894015281816118b501526119d50152600061185801526134b96000f3fe60806040526004361061014b5760003560e01c8063715018a6116100b6578063aa1524911161006f578063aa152491146104a4578063b88d4fde146104c2578063c87b56dd146104eb578063e086e5ec14610528578063e985e9c51461053f578063f2fde38b1461057c5761014b565b8063715018a6146103a65780637a5caab3146103bd5780637e83bd8b146103e85780638da5cb5b1461042557806395d89b4114610450578063a22cb4651461047b5761014b565b806342842e0e1161010857806342842e0e146102705780635dacf5f4146102995780636352211e146102c457806364224120146103015780636e02007d1461033e57806370a08231146103695761014b565b806301ffc9a71461015057806306fdde031461018d578063081812fc146101b8578063095ea7b3146101f55780631fe543e31461021e57806323b872dd14610247575b600080fd5b34801561015c57600080fd5b50610177600480360381019061017291906124d3565b6105a5565b604051610184919061251b565b60405180910390f35b34801561019957600080fd5b506101a2610606565b6040516101af91906125c6565b60405180910390f35b3480156101c457600080fd5b506101df60048036038101906101da919061261e565b610698565b6040516101ec919061268c565b60405180910390f35b34801561020157600080fd5b5061021c600480360381019061021791906126d3565b6106b4565b005b34801561022a57600080fd5b506102456004803603810190610240919061285b565b6106ca565b005b34801561025357600080fd5b5061026e600480360381019061026991906128b7565b610766565b005b34801561027c57600080fd5b50610297600480360381019061029291906128b7565b610868565b005b3480156102a557600080fd5b506102ae610888565b6040516102bb91906129b5565b60405180910390f35b3480156102d057600080fd5b506102eb60048036038101906102e6919061261e565b6108b3565b6040516102f8919061268c565b60405180910390f35b34801561030d57600080fd5b506103286004803603810190610323919061261e565b6108c5565b60405161033591906125c6565b60405180910390f35b34801561034a57600080fd5b50610353610975565b60405161036091906129df565b60405180910390f35b34801561037557600080fd5b50610390600480360381019061038b91906129fa565b61097f565b60405161039d91906129df565b60405180910390f35b3480156103b257600080fd5b506103bb610a39565b005b3480156103c957600080fd5b506103d2610a4d565b6040516103df91906129df565b60405180910390f35b3480156103f457600080fd5b5061040f600480360381019061040a919061261e565b610a75565b60405161041c9190612a9e565b60405180910390f35b34801561043157600080fd5b5061043a610b51565b604051610447919061268c565b60405180910390f35b34801561045c57600080fd5b50610465610b7b565b60405161047291906125c6565b60405180910390f35b34801561048757600080fd5b506104a2600480360381019061049d9190612ae5565b610c0d565b005b6104ac610c23565b6040516104b991906129df565b60405180910390f35b3480156104ce57600080fd5b506104e960048036038101906104e49190612bda565b610d1e565b005b3480156104f757600080fd5b50610512600480360381019061050d919061261e565b610d43565b60405161051f91906125c6565b60405180910390f35b34801561053457600080fd5b5061053d610e56565b005b34801561054b57600080fd5b5061056660048036038101906105619190612c5d565b610f0a565b604051610573919061251b565b60405180910390f35b34801561058857600080fd5b506105a3600480360381019061059e91906129fa565b610f9e565b005b6000634906490660e01b7bffffffffffffffffffffffffffffffffffffffffffffffffffffffff1916827bffffffffffffffffffffffffffffffffffffffffffffffffffffffff191614806105ff57506105fe82611024565b5b9050919050565b60606000805461061590612ccc565b80601f016020809104026020016040519081016040528092919081815260200182805461064190612ccc565b801561068e5780601f106106635761010080835404028352916020019161068e565b820191906000526020600020905b81548152906001019060200180831161067157829003601f168201915b5050505050905090565b60006106a382611106565b506106ad8261118e565b9050919050565b6106c682826106c16111cb565b6111d3565b5050565b7f000000000000000000000000000000000000000000000000000000000000000073ffffffffffffffffffffffffffffffffffffffff163373ffffffffffffffffffffffffffffffffffffffff1614610758576040517f08c379a000000000000000000000000000000000000000000000000000000000815260040161074f90612d49565b60405180910390fd5b61076282826111e5565b5050565b600073ffffffffffffffffffffffffffffffffffffffff168273ffffffffffffffffffffffffffffffffffffffff16036107d85760006040517f64a0ae920000000000000000000000000000000000000000000000000000000081526004016107cf919061268c565b60405180910390fd5b60006107ec83836107e76111cb565b61137e565b90508373ffffffffffffffffffffffffffffffffffffffff168173ffffffffffffffffffffffffffffffffffffffff1614610862578382826040517f64283d7b00000000000000000000000000000000000000000000000000000000815260040161085993929190612d69565b60405180910390fd5b50505050565b61088383838360405180602001604052806000815250610d1e565b505050565b610890612445565b6040518060600160405280600a8152602001601e81526020016064815250905090565b60006108be82611106565b9050919050565b6060600982815481106108db576108da612da0565b5b9060005260206000200180546108f090612ccc565b80601f016020809104026020016040519081016040528092919081815260200182805461091c90612ccc565b80156109695780601f1061093e57610100808354040283529160200191610969565b820191906000526020600020905b81548152906001019060200180831161094c57829003601f168201915b50505050509050919050565b6000600854905090565b60008073ffffffffffffffffffffffffffffffffffffffff168273ffffffffffffffffffffffffffffffffffffffff16036109f25760006040517f89c62b640000000000000000000000000000000000000000000000000000000081526004016109e9919061268c565b60405180910390fd5b600360008373ffffffffffffffffffffffffffffffffffffffff1673ffffffffffffffffffffffffffffffffffffffff168152602001908152602001600020549050919050565b610a41611598565b610a4b600061161f565b565b60007f0000000000000000000000000000000000000000000000000000000000000000905090565b600080600090506000610a86610888565b905060005b6003811015610b1957828510158015610ac55750818160038110610ab257610ab1612da0565b5b602002015183610ac29190612dfe565b85105b15610ae757806002811115610add57610adc612a27565b5b9350505050610b4c565b818160038110610afa57610af9612da0565b5b602002015183610b0a9190612dfe565b92508080600101915050610a8b565b506040517f2b8299b500000000000000000000000000000000000000000000000000000000815260040160405180910390fd5b919050565b6000600760009054906101000a900473ffffffffffffffffffffffffffffffffffffffff16905090565b606060018054610b8a90612ccc565b80601f0160208091040260200160405190810160405280929190818152602001828054610bb690612ccc565b8015610c035780601f10610bd857610100808354040283529160200191610c03565b820191906000526020600020905b815481529060010190602001808311610be657829003601f168201915b5050505050905090565b610c1f610c186111cb565b83836116e5565b5050565b60007f0000000000000000000000000000000000000000000000000000000000000000341015610c7f576040517feb7246a800000000000000000000000000000000000000000000000000000000815260040160405180910390fd5b610c8f6207a12060036001611854565b905033600a600083815260200190815260200160002060006101000a81548173ffffffffffffffffffffffffffffffffffffffff021916908373ffffffffffffffffffffffffffffffffffffffff160217905550807f4e1c2f1eae56e29ec039a2b882eec626e6c420ed5a5b93a203c8b8b695e911b133604051610d13919061268c565b60405180910390a290565b610d29848484610766565b610d3d610d346111cb565b85858585611a6b565b50505050565b6060610d4e82611106565b506000600660008481526020019081526020016000208054610d6f90612ccc565b80601f0160208091040260200160405190810160405280929190818152602001828054610d9b90612ccc565b8015610de85780601f10610dbd57610100808354040283529160200191610de8565b820191906000526020600020905b815481529060010190602001808311610dcb57829003601f168201915b505050505090506000610df9611c1c565b90506000815103610e0e578192505050610e51565b600082511115610e43578082604051602001610e2b929190612e6e565b60405160208183030381529060405292505050610e51565b610e4c84611c33565b925050505b919050565b610e5e611598565b600047905060003373ffffffffffffffffffffffffffffffffffffffff1682604051610e8990612ec3565b60006040518083038185875af1925050503d8060008114610ec6576040519150601f19603f3d011682016040523d82523d6000602084013e610ecb565b606091505b5050905080610f06576040517f5586f5d000000000000000000000000000000000000000000000000000000000815260040160405180910390fd5b5050565b6000600560008473ffffffffffffffffffffffffffffffffffffffff1673ffffffffffffffffffffffffffffffffffffffff16815260200190815260200160002060008373ffffffffffffffffffffffffffffffffffffffff1673ffffffffffffffffffffffffffffffffffffffff16815260200190815260200160002060009054906101000a900460ff16905092915050565b610fa6611598565b600073ffffffffffffffffffffffffffffffffffffffff168173ffffffffffffffffffffffffffffffffffffffff16036110185760006040517f1e4fbdf700000000000000000000000000000000000000000000000000000000815260040161100f919061268c565b60405180910390fd5b6110218161161f565b50565b60007f80ac58cd000000000000000000000000000000000000000000000000000000007bffffffffffffffffffffffffffffffffffffffffffffffffffffffff1916827bffffffffffffffffffffffffffffffffffffffffffffffffffffffff191614806110ef57507f5b5e139f000000000000000000000000000000000000000000000000000000007bffffffffffffffffffffffffffffffffffffffffffffffffffffffff1916827bffffffffffffffffffffffffffffffffffffffffffffffffffffffff1916145b806110ff57506110fe82611c9c565b5b9050919050565b60008061111283611d06565b9050600073ffffffffffffffffffffffffffffffffffffffff168173ffffffffffffffffffffffffffffffffffffffff160361118557826040517f7e27328900000000000000000000000000000000000000000000000000000000815260040161117c91906129df565b60405180910390fd5b80915050919050565b60006004600083815260200190815260200160002060009054906101000a900473ffffffffffffffffffffffffffffffffffffffff169050919050565b600033905090565b6111e08383836001611d43565b505050565b6000600a600084815260200190815260200160002060009054906101000a900473ffffffffffffffffffffffffffffffffffffffff16905060006008600081548092919061123290612ed8565b91905055905060006064846000815181106112505761124f612da0565b5b60200260200101516112629190612f4f565b9050600061126f82610a75565b905061127b8484611f08565b61133d83600983600281111561129457611293612a27565b5b815481106112a5576112a4612da0565b5b9060005260206000200180546112ba90612ccc565b80601f01602080910402602001604051908101604052809291908181526020018280546112e690612ccc565b80156113335780601f1061130857610100808354040283529160200191611333565b820191906000526020600020905b81548152906001019060200180831161131657829003601f168201915b5050505050611f26565b7fab79897476febbd649710b1bd1dc3e93a316d3dee65f65b022ab89a4b7e206b5818560405161136e929190612f80565b60405180910390a1505050505050565b60008061138a84611d06565b9050600073ffffffffffffffffffffffffffffffffffffffff168373ffffffffffffffffffffffffffffffffffffffff16146113cc576113cb818486611f82565b5b600073ffffffffffffffffffffffffffffffffffffffff168173ffffffffffffffffffffffffffffffffffffffff161461145d5761140e600085600080611d43565b6001600360008373ffffffffffffffffffffffffffffffffffffffff1673ffffffffffffffffffffffffffffffffffffffff168152602001908152602001600020600082825403925050819055505b600073ffffffffffffffffffffffffffffffffffffffff168573ffffffffffffffffffffffffffffffffffffffff16146114e0576001600360008773ffffffffffffffffffffffffffffffffffffffff1673ffffffffffffffffffffffffffffffffffffffff168152602001908152602001600020600082825401925050819055505b846002600086815260200190815260200160002060006101000a81548173ffffffffffffffffffffffffffffffffffffffff021916908373ffffffffffffffffffffffffffffffffffffffff160217905550838573ffffffffffffffffffffffffffffffffffffffff168273ffffffffffffffffffffffffffffffffffffffff167fddf252ad1be2c89b69c2b068fc378daa952ba7f163c4a11628f55a4df523b3ef60405160405180910390a4809150509392505050565b6115a06111cb565b73ffffffffffffffffffffffffffffffffffffffff166115be610b51565b73ffffffffffffffffffffffffffffffffffffffff161461161d576115e16111cb565b6040517f118cdaa7000000000000000000000000000000000000000000000000000000008152600401611614919061268c565b60405180910390fd5b565b6000600760009054906101000a900473ffffffffffffffffffffffffffffffffffffffff16905081600760006101000a81548173ffffffffffffffffffffffffffffffffffffffff021916908373ffffffffffffffffffffffffffffffffffffffff1602179055508173ffffffffffffffffffffffffffffffffffffffff168173ffffffffffffffffffffffffffffffffffffffff167f8be0079c531659141344cd1fd0a4f28419497f9722a3daafe3b4186f6b6457e060405160405180910390a35050565b600073ffffffffffffffffffffffffffffffffffffffff168273ffffffffffffffffffffffffffffffffffffffff160361175657816040517f5b08ba1800000000000000000000000000000000000000000000000000000000815260040161174d919061268c565b60405180910390fd5b80600560008573ffffffffffffffffffffffffffffffffffffffff1673ffffffffffffffffffffffffffffffffffffffff16815260200190815260200160002060008473ffffffffffffffffffffffffffffffffffffffff1673ffffffffffffffffffffffffffffffffffffffff16815260200190815260200160002060006101000a81548160ff0219169083151502179055508173ffffffffffffffffffffffffffffffffffffffff168373ffffffffffffffffffffffffffffffffffffffff167f17307eab39ab6107e8899845ad3d59bd9653f200f220920489ca2b5937696c3183604051611847919061251b565b60405180910390a3505050565b60007f000000000000000000000000000000000000000000000000000000000000000073ffffffffffffffffffffffffffffffffffffffff16634000aea07f00000000000000000000000000000000000000000000000000000000000000007f000000000000000000000000000000000000000000000000000000000000000073ffffffffffffffffffffffffffffffffffffffff16634306d354886040518263ffffffff1660e01b815260040161190c9190612fc8565b602060405180830381865afa158015611929573d6000803e3d6000fd5b505050506040513d601f19601f8201168201806040525081019061194d9190612ff8565b87878760405160200161196293929190613042565b6040516020818303038152906040526040518463ffffffff1660e01b815260040161198f939291906130ce565b6020604051808303816000875af11580156119ae573d6000803e3d6000fd5b505050506040513d601f19601f820116820180604052508101906119d29190613121565b507f000000000000000000000000000000000000000000000000000000000000000073ffffffffffffffffffffffffffffffffffffffff1663fc2a88c36040518163ffffffff1660e01b8152600401602060405180830381865afa158015611a3e573d6000803e3d6000fd5b505050506040513d601f19601f82011682018060405250810190611a629190612ff8565b90509392505050565b60008373ffffffffffffffffffffffffffffffffffffffff163b1115611c15578273ffffffffffffffffffffffffffffffffffffffff1663150b7a02868685856040518563ffffffff1660e01b8152600401611aca949392919061314e565b6020604051808303816000875af1925050508015611b0657506040513d601f19601f82011682018060405250810190611b0391906131af565b60015b611b8a573d8060008114611b36576040519150601f19603f3d011682016040523d82523d6000602084013e611b3b565b606091505b506000815103611b8257836040517f64a0ae92000000000000000000000000000000000000000000000000000000008152600401611b79919061268c565b60405180910390fd5b805181602001fd5b63150b7a0260e01b7bffffffffffffffffffffffffffffffffffffffffffffffffffffffff1916817bffffffffffffffffffffffffffffffffffffffffffffffffffffffff191614611c1357836040517f64a0ae92000000000000000000000000000000000000000000000000000000008152600401611c0a919061268c565b60405180910390fd5b505b5050505050565b606060405180602001604052806000815250905090565b6060611c3e82611106565b506000611c49611c1c565b90506000815111611c695760405180602001604052806000815250611c94565b80611c7384612046565b604051602001611c84929190612e6e565b6040516020818303038152906040525b915050919050565b60007f01ffc9a7000000000000000000000000000000000000000000000000000000007bffffffffffffffffffffffffffffffffffffffffffffffffffffffff1916827bffffffffffffffffffffffffffffffffffffffffffffffffffffffff1916149050919050565b60006002600083815260200190815260200160002060009054906101000a900473ffffffffffffffffffffffffffffffffffffffff169050919050565b8080611d7c5750600073ffffffffffffffffffffffffffffffffffffffff168273ffffffffffffffffffffffffffffffffffffffff1614155b15611eb0576000611d8c84611106565b9050600073ffffffffffffffffffffffffffffffffffffffff168373ffffffffffffffffffffffffffffffffffffffff1614158015611df757508273ffffffffffffffffffffffffffffffffffffffff168173ffffffffffffffffffffffffffffffffffffffff1614155b8015611e0a5750611e088184610f0a565b155b15611e4c57826040517fa9fbf51f000000000000000000000000000000000000000000000000000000008152600401611e43919061268c565b60405180910390fd5b8115611eae57838573ffffffffffffffffffffffffffffffffffffffff168273ffffffffffffffffffffffffffffffffffffffff167f8c5be1e5ebec7d5bd14f71427d1e84f3dd0314c0f7b2291e5b200ac8c7c3b92560405160405180910390a45b505b836004600085815260200190815260200160002060006101000a81548173ffffffffffffffffffffffffffffffffffffffff021916908373ffffffffffffffffffffffffffffffffffffffff16021790555050505050565b611f22828260405180602001604052806000815250612114565b5050565b80600660008481526020019081526020016000209081611f469190613388565b507ff8e1a15aba9398e019f0b49df1a4fde98ee17ae345cb5f6b5e2c27f5033e8ce782604051611f7691906129df565b60405180910390a15050565b611f8d838383612138565b61204157600073ffffffffffffffffffffffffffffffffffffffff168373ffffffffffffffffffffffffffffffffffffffff160361200257806040517f7e273289000000000000000000000000000000000000000000000000000000008152600401611ff991906129df565b60405180910390fd5b81816040517f177e802f00000000000000000000000000000000000000000000000000000000815260040161203892919061345a565b60405180910390fd5b505050565b606060006001612055846121f9565b01905060008167ffffffffffffffff81111561207457612073612718565b5b6040519080825280601f01601f1916602001820160405280156120a65781602001600182028036833780820191505090505b509050600082602001820190505b600115612109578080600190039150507f3031323334353637383961626364656600000000000000000000000000000000600a86061a8153600a85816120fd576120fc612f20565b5b049450600085036120b4575b819350505050919050565b61211e838361234c565b6121336121296111cb565b6000858585611a6b565b505050565b60008073ffffffffffffffffffffffffffffffffffffffff168373ffffffffffffffffffffffffffffffffffffffff16141580156121f057508273ffffffffffffffffffffffffffffffffffffffff168473ffffffffffffffffffffffffffffffffffffffff1614806121b157506121b08484610f0a565b5b806121ef57508273ffffffffffffffffffffffffffffffffffffffff166121d78361118e565b73ffffffffffffffffffffffffffffffffffffffff16145b5b90509392505050565b600080600090507a184f03e93ff9f4daa797ed6e38ed64bf6a1f0100000000000000008310612257577a184f03e93ff9f4daa797ed6e38ed64bf6a1f010000000000000000838161224d5761224c612f20565b5b0492506040810190505b6d04ee2d6d415b85acef81000000008310612294576d04ee2d6d415b85acef8100000000838161228a57612289612f20565b5b0492506020810190505b662386f26fc1000083106122c357662386f26fc1000083816122b9576122b8612f20565b5b0492506010810190505b6305f5e10083106122ec576305f5e10083816122e2576122e1612f20565b5b0492506008810190505b612710831061231157612710838161230757612306612f20565b5b0492506004810190505b60648310612334576064838161232a57612329612f20565b5b0492506002810190505b600a8310612343576001810190505b80915050919050565b600073ffffffffffffffffffffffffffffffffffffffff168273ffffffffffffffffffffffffffffffffffffffff16036123be5760006040517f64a0ae920000000000000000000000000000000000000000000000000000000081526004016123b5919061268c565b60405180910390fd5b60006123cc8383600061137e565b9050600073ffffffffffffffffffffffffffffffffffffffff168173ffffffffffffffffffffffffffffffffffffffff16146124405760006040517f73c6ac6e000000000000000000000000000000000000000000000000000000008152600401612437919061268c565b60405180910390fd5b505050565b6040518060600160405280600390602082028036833780820191505090505090565b6000604051905090565b600080fd5b600080fd5b60007fffffffff0000000000000000000000000000000000000000000000000000000082169050919050565b6124b08161247b565b81146124bb57600080fd5b50565b6000813590506124cd816124a7565b92915050565b6000602082840312156124e9576124e8612471565b5b60006124f7848285016124be565b91505092915050565b60008115159050919050565b61251581612500565b82525050565b6000602082019050612530600083018461250c565b92915050565b600081519050919050565b600082825260208201905092915050565b60005b83811015612570578082015181840152602081019050612555565b60008484015250505050565b6000601f19601f8301169050919050565b600061259882612536565b6125a28185612541565b93506125b2818560208601612552565b6125bb8161257c565b840191505092915050565b600060208201905081810360008301526125e0818461258d565b905092915050565b6000819050919050565b6125fb816125e8565b811461260657600080fd5b50565b600081359050612618816125f2565b92915050565b60006020828403121561263457612633612471565b5b600061264284828501612609565b91505092915050565b600073ffffffffffffffffffffffffffffffffffffffff82169050919050565b60006126768261264b565b9050919050565b6126868161266b565b82525050565b60006020820190506126a1600083018461267d565b92915050565b6126b08161266b565b81146126bb57600080fd5b50565b6000813590506126cd816126a7565b92915050565b600080604083850312156126ea576126e9612471565b5b60006126f8858286016126be565b925050602061270985828601612609565b9150509250929050565b600080fd5b7f4e487b7100000000000000000000000000000000000000000000000000000000600052604160045260246000fd5b6127508261257c565b810181811067ffffffffffffffff8211171561276f5761276e612718565b5b80604052505050565b6000612782612467565b905061278e8282612747565b919050565b600067ffffffffffffffff8211156127ae576127ad612718565b5b602082029050602081019050919050565b600080fd5b60006127d76127d284612793565b612778565b905080838252602082019050602084028301858111156127fa576127f96127bf565b5b835b81811015612823578061280f8882612609565b8452602084019350506020810190506127fc565b5050509392505050565b600082601f83011261284257612841612713565b5b81356128528482602086016127c4565b91505092915050565b6000806040838503121561287257612871612471565b5b600061288085828601612609565b925050602083013567ffffffffffffffff8111156128a1576128a0612476565b5b6128ad8582860161282d565b9150509250929050565b6000806000606084860312156128d0576128cf612471565b5b60006128de868287016126be565b93505060206128ef868287016126be565b925050604061290086828701612609565b9150509250925092565b600060039050919050565b600081905092915050565b6000819050919050565b612933816125e8565b82525050565b6000612945838361292a565b60208301905092915050565b6000602082019050919050565b6129678161290a565b6129718184612915565b925061297c82612920565b8060005b838110156129ad5781516129948782612939565b965061299f83612951565b925050600181019050612980565b505050505050565b60006060820190506129ca600083018461295e565b92915050565b6129d9816125e8565b82525050565b60006020820190506129f460008301846129d0565b92915050565b600060208284031215612a1057612a0f612471565b5b6000612a1e848285016126be565b91505092915050565b7f4e487b7100000000000000000000000000000000000000000000000000000000600052602160045260246000fd5b60038110612a6757612a66612a27565b5b50565b6000819050612a7882612a56565b919050565b6000612a8882612a6a565b9050919050565b612a9881612a7d565b82525050565b6000602082019050612ab36000830184612a8f565b92915050565b612ac281612500565b8114612acd57600080fd5b50565b600081359050612adf81612ab9565b92915050565b60008060408385031215612afc57612afb612471565b5b6000612b0a858286016126be565b9250506020612b1b85828601612ad0565b9150509250929050565b600080fd5b600067ffffffffffffffff821115612b4557612b44612718565b5b612b4e8261257c565b9050602081019050919050565b82818337600083830152505050565b6000612b7d612b7884612b2a565b612778565b905082815260208101848484011115612b9957612b98612b25565b5b612ba4848285612b5b565b509392505050565b600082601f830112612bc157612bc0612713565b5b8135612bd1848260208601612b6a565b91505092915050565b60008060008060808587031215612bf457612bf3612471565b5b6000612c02878288016126be565b9450506020612c13878288016126be565b9350506040612c2487828801612609565b925050606085013567ffffffffffffffff811115612c4557612c44612476565b5b612c5187828801612bac565b91505092959194509250565b60008060408385031215612c7457612c73612471565b5b6000612c82858286016126be565b9250506020612c93858286016126be565b9150509250929050565b7f4e487b7100000000000000000000000000000000000000000000000000000000600052602260045260246000fd5b60006002820490506001821680612ce457607f821691505b602082108103612cf757612cf6612c9d565b5b50919050565b7f6f6e6c792056524620563220777261707065722063616e2066756c66696c6c00600082015250565b6000612d33601f83612541565b9150612d3e82612cfd565b602082019050919050565b60006020820190508181036000830152612d6281612d26565b9050919050565b6000606082019050612d7e600083018661267d565b612d8b60208301856129d0565b612d98604083018461267d565b949350505050565b7f4e487b7100000000000000000000000000000000000000000000000000000000600052603260045260246000fd5b7f4e487b7100000000000000000000000000000000000000000000000000000000600052601160045260246000fd5b6000612e09826125e8565b9150612e14836125e8565b9250828201905080821115612e2c57612e2b612dcf565b5b92915050565b600081905092915050565b6000612e4882612536565b612e528185612e32565b9350612e62818560208601612552565b80840191505092915050565b6000612e7a8285612e3d565b9150612e868284612e3d565b91508190509392505050565b600081905092915050565b50565b6000612ead600083612e92565b9150612eb882612e9d565b600082019050919050565b6000612ece82612ea0565b9150819050919050565b6000612ee3826125e8565b91507fffffffffffffffffffffffffffffffffffffffffffffffffffffffffffffffff8203612f1557612f14612dcf565b5b600182019050919050565b7f4e487b7100000000000000000000000000000000000000000000000000000000600052601260045260246000fd5b6000612f5a826125e8565b9150612f65836125e8565b925082612f7557612f74612f20565b5b828206905092915050565b6000604082019050612f956000830185612a8f565b612fa2602083018461267d565b9392505050565b600063ffffffff82169050919050565b612fc281612fa9565b82525050565b6000602082019050612fdd6000830184612fb9565b92915050565b600081519050612ff2816125f2565b92915050565b60006020828403121561300e5761300d612471565b5b600061301c84828501612fe3565b91505092915050565b600061ffff82169050919050565b61303c81613025565b82525050565b60006060820190506130576000830186612fb9565b6130646020830185613033565b6130716040830184612fb9565b949350505050565b600081519050919050565b600082825260208201905092915050565b60006130a082613079565b6130aa8185613084565b93506130ba818560208601612552565b6130c38161257c565b840191505092915050565b60006060820190506130e3600083018661267d565b6130f060208301856129d0565b81810360408301526131028184613095565b9050949350505050565b60008151905061311b81612ab9565b92915050565b60006020828403121561313757613136612471565b5b60006131458482850161310c565b91505092915050565b6000608082019050613163600083018761267d565b613170602083018661267d565b61317d60408301856129d0565b818103606083015261318f8184613095565b905095945050505050565b6000815190506131a9816124a7565b92915050565b6000602082840312156131c5576131c4612471565b5b60006131d38482850161319a565b91505092915050565b60008190508160005260206000209050919050565b60006020601f8301049050919050565b600082821b905092915050565b60006008830261323e7fffffffffffffffffffffffffffffffffffffffffffffffffffffffffffffffff82613201565b6132488683613201565b95508019841693508086168417925050509392505050565b6000819050919050565b600061328561328061327b846125e8565b613260565b6125e8565b9050919050565b6000819050919050565b61329f8361326a565b6132b36132ab8261328c565b84845461320e565b825550505050565b600090565b6132c86132bb565b6132d3818484613296565b505050565b5b818110156132f7576132ec6000826132c0565b6001810190506132d9565b5050565b601f82111561333c5761330d816131dc565b613316846131f1565b81016020851015613325578190505b613339613331856131f1565b8301826132d8565b50505b505050565b600082821c905092915050565b600061335f60001984600802613341565b1980831691505092915050565b6000613378838361334e565b9150826002028217905092915050565b61339182612536565b67ffffffffffffffff8111156133aa576133a9612718565b5b6133b48254612ccc565b6133bf8282856132fb565b600060209050601f8311600181146133f257600084156133e0578287015190505b6133ea858261336c565b865550613452565b601f198416613400866131dc565b60005b8281101561342857848901518255600182019150602085019450602081019050613403565b868310156134455784890151613441601f89168261334e565b8355505b6001600288020188555050505b505050505050565b600060408201905061346f600083018561267d565b61347c60208301846129d0565b939250505056fea26469706673582212207a5631d077cc6769a2c512d370b8313ccdd5b7455387382412f2bdbc0a289d1864736f6c634300081c0033",
  "devdoc": {
    "errors": {
      "ERC721IncorrectOwner(address,uint256,address)": [
        {
          "details": "Indicates an error related to the ownership over a particular token. Used in transfers.",
          "params": {
            "owner": "Address of the current owner of a token.",
            "sender": "Address whose tokens are being transferred.",
            "tokenId": "Identifier number of a token."
          }
        }
      ],
      "ERC721InsufficientApproval(address,uint256)": [
        {
          "details": "Indicates a failure with the `operator`s approval. Used in transfers.",
          "params": {
            "operator": "Address that may be allowed to operate on tokens without being their owner.",
            "tokenId": "Identifier number of a token."
          }
        }
      ],
      "ERC721InvalidApprover(address)": [
        {
          "details": "Indicates a failure with the `approver` of a token to be approved. Used in approvals.",
          "params": {
            "approver": "Address initiating an approval operation."
          }
        }
      ],
      "ERC721InvalidOperator(address)": [
        {
          "details": "Indicates a failure with the `operator` to be approved. Used in approvals.",
          "params": {
            "operator": "Address that may be allowed to operate on tokens without being their owner."
          }
        }
      ],
      "ERC721InvalidOwner(address)": [
        {
          "details": "Indicates that an address can't be an owner. For example, `address(0)` is a forbidden owner in ERC-20. Used in balance queries.",
          "params": {
            "owner": "Address of the current owner of a token."
          }
        }
      ],
      "ERC721InvalidReceiver(address)": [
        {
          "details": "Indicates a failure with the token `receiver`. Used in transfers.",
          "params": {
            "receiver": "Address to which tokens are being transferred."
          }
        }
      ],
      "ERC721InvalidSender(address)": [
        {
          "details": "Indicates a failure with the token `sender`. Used in transfers.",
          "params": {
            "sender": "Address whose tokens are being transferred."
          }
        }
      ],
      "ERC721NonexistentToken(uint256)": [
        {
          "details": "Indicates a `tokenId` whose `owner` is the zero address.",
          "params": {
            "tokenId": "Identifier number of a token."
          }
        }
      ],
      "OwnableInvalidOwner(address)": [
        {
          "details": "The owner is not a valid owner account. (eg. `address(0)`)"
        }
      ],
      "OwnableUnauthorizedAccount(address)": [
        {
          "details": "The caller account is not authorized to perform an operation."
        }
      ]
    },
    "events": {
      "Approval(address,address,uint256)": {
        "details": "Emitted when `owner` enables `approved` to manage the `tokenId` token."
      },
      "ApprovalForAll(address,address,bool)": {
        "details": "Emitted when `owner` enables or disables (`approved`) `operator` to manage all of its assets."
      },
      "BatchMetadataUpdate(uint256,uint256)": {
        "details": "This event emits when the metadata of a range of tokens is changed. So that the third-party platforms such as NFT market could timely update the images and related attributes of the NFTs."
      },
      "MetadataUpdate(uint256)": {
        "details": "This event emits when the metadata of a token is changed. So that the third-party platforms such as NFT market could timely update the images and related attributes of the NFT."
      },
      "Transfer(address,address,uint256)": {
        "details": "Emitted when `tokenId` token is transferred from `from` to `to`."
      }
    },
    "kind": "dev",
    "methods": {
      "approve(address,uint256)": {
        "details": "See {IERC721-approve}."
      },
      "balanceOf(address)": {
        "details": "See {IERC721-balanceOf}."
      },
      "getApproved(uint256)": {
        "details": "See {IERC721-getApproved}."
      },
      "isApprovedForAll(address,address)": {
        "details": "See {IERC721-isApprovedForAll}."
      },
      "name()": {
        "details": "See {IERC721Metadata-name}."
      },
      "owner()": {
        "details": "Returns the address of the current owner."
      },
      "ownerOf(uint256)": {
        "details": "See {IERC721-ownerOf}."
      },
      "renounceOwnership()": {
        "details": "Leaves the contract without owner. It will not be possible to call `onlyOwner` functions. Can only be called by the current owner. NOTE: Renouncing ownership will leave the contract without an owner, thereby disabling any functionality that is only available to the owner."
      },
      "safeTransferFrom(address,address,uint256)": {
        "details": "See {IERC721-safeTransferFrom}."
      },
      "safeTransferFrom(address,address,uint256,bytes)": {
        "details": "See {IERC721-safeTransferFrom}."
      },
      "setApprovalForAll(address,bool)": {
        "details": "See {IERC721-setApprovalForAll}."
      },
      "supportsInterface(bytes4)": {
        "details": "See {IERC165-supportsInterface}"
      },
      "symbol()": {
        "details": "See {IERC721Metadata-symbol}."
      },
      "tokenURI(uint256)": {
        "details": "See {IERC721Metadata-tokenURI}."
      },
      "transferFrom(address,address,uint256)": {
        "details": "See {IERC721-transferFrom}."
      },
      "transferOwnership(address)": {
        "details": "Transfers ownership of the contract to a new account (`newOwner`). Can only be called by the current owner."
      }
    },
    "version": 1
  },
  "userdoc": {
    "kind": "user",
    "methods": {},
    "version": 1
  },
  "storageLayout": {
    "storage": [
      {
        "astId": 576,
        "contract": "contracts/RandomIpfsNft.sol:RandomIpfsNft",
        "label": "_name",
        "offset": 0,
        "slot": "0",
        "type": "t_string_storage"
      },
      {
        "astId": 578,
        "contract": "contracts/RandomIpfsNft.sol:RandomIpfsNft",
        "label": "_symbol",
        "offset": 0,
        "slot": "1",
        "type": "t_string_storage"
      },
      {
        "astId": 582,
        "contract": "contracts/RandomIpfsNft.sol:RandomIpfsNft",
        "label": "_owners",
        "offset": 0,
        "slot": "2",
        "type": "t_mapping(t_uint256,t_address)"
      },
      {
        "astId": 586,
        "contract": "contracts/RandomIpfsNft.sol:RandomIpfsNft",
        "label": "_balances",
        "offset": 0,
        "slot": "3",
        "type": "t_mapping(t_address,t_uint256)"
      },
      {
        "astId": 590,
        "contract": "contracts/RandomIpfsNft.sol:RandomIpfsNft",
        "label": "_tokenApprovals",
        "offset": 0,
        "slot": "4",
        "type": "t_mapping(t_uint256,t_address)"
      },
      {
        "astId": 596,
        "contract": "contracts/RandomIpfsNft.sol:RandomIpfsNft",
        "label": "_operatorApprovals",
        "offset": 0,
        "slot": "5",
        "type": "t_mapping(t_address,t_mapping(t_address,t_bool))"
      },
      {
        "astId": 1663,
        "contract": "contracts/RandomIpfsNft.sol:RandomIpfsNft",
        "label": "_tokenURIs",
        "offset": 0,
        "slot": "6",
        "type": "t_mapping(t_uint256,t_string_storage)"
      },
      {
        "astId": 235,
        "contract": "contracts/RandomIpfsNft.sol:RandomIpfsNft",
        "label": "_owner",
        "offset": 0,
        "slot": "7",
        "type": "t_address"
      },
      {
        "astId": 7470,
        "contract": "contracts/RandomIpfsNft.sol:RandomIpfsNft",
        "label": "s_tokenCounter",
        "offset": 0,
        "slot": "8",
        "type": "t_uint256"
      },
      {
        "astId": 7476,
        "contract": "contracts/RandomIpfsNft.sol:RandomIpfsNft",
        "label": "s_tokenURIs",
        "offset": 0,
        "slot": "9",
        "type": "t_array(t_string_storage)dyn_storage"
      },
      {
        "astId": 7480,
        "contract": "contracts/RandomIpfsNft.sol:RandomIpfsNft",
        "label": "s_requestIdToSender",
        "offset": 0,
        "slot": "10",
        "type": "t_mapping(t_uint256,t_address)"
      }
    ],
    "types": {
      "t_address": {
        "encoding": "inplace",
        "label": "address",
        "numberOfBytes": "20"
      },
      "t_array(t_string_storage)dyn_storage": {
        "base": "t_string_storage",
        "encoding": "dynamic_array",
        "label": "string[]",
        "numberOfBytes": "32"
      },
      "t_bool": {
        "encoding": "inplace",
        "label": "bool",
        "numberOfBytes": "1"
      },
      "t_mapping(t_address,t_bool)": {
        "encoding": "mapping",
        "key": "t_address",
        "label": "mapping(address => bool)",
        "numberOfBytes": "32",
        "value": "t_bool"
      },
      "t_mapping(t_address,t_mapping(t_address,t_bool))": {
        "encoding": "mapping",
        "key": "t_address",
        "label": "mapping(address => mapping(address => bool))",
        "numberOfBytes": "32",
        "value": "t_mapping(t_address,t_bool)"
      },
      "t_mapping(t_address,t_uint256)": {
        "encoding": "mapping",
        "key": "t_address",
        "label": "mapping(address => uint256)",
        "numberOfBytes": "32",
        "value": "t_uint256"
      },
      "t_mapping(t_uint256,t_address)": {
        "encoding": "mapping",
        "key": "t_uint256",
        "label": "mapping(uint256 => address)",
        "numberOfBytes": "32",
        "value": "t_address"
      },
      "t_mapping(t_uint256,t_string_storage)": {
        "encoding": "mapping",
        "key": "t_uint256",
        "label": "mapping(uint256 => string)",
        "numberOfBytes": "32",
        "value": "t_string_storage"
      },
      "t_string_storage": {
        "encoding": "bytes",
        "label": "string",
        "numberOfBytes": "32"
      },
      "t_uint256": {
        "encoding": "inplace",
        "label": "uint256",
        "numberOfBytes": "32"
      }
    }
  }
}