{
  "address": "0xDc64a140Aa3E981100a9becA4E685f962f0cF6C9",
  "abi": [
    {
      "inputs": [
        {
          "internalType": "address",
          "name": "vrfCoordinatorV2_5",
          "type": "address"
        },
        {
          "internalType": "uint256",
          "name": "subscriptionId",
          "type": "uint256"
        },
        {
          "internalType": "string[10]",
          "name": "tokenURIs",
          "type": "string[10]"
        },
        {
          "internalType": "uint256",
          "name": "mintFee",
          "type": "uint256"
        }
      ],
      "stateMutability": "nonpayable",
      "type": "constructor"
    },
    {
      "inputs": [
        {
          "internalType": "address",
          "name": "sender",
          "type": "address"
        },
        {
          "internalType": "uint256",
          "name": "tokenId",
          "type": "uint256"
        },
        {
          "internalType": "address",
          "name": "owner",
          "type": "address"
        }
      ],
      "name": "ERC721IncorrectOwner",
      "type": "error"
    },
    {
      "inputs": [
        {
          "internalType": "address",
          "name": "operator",
          "type": "address"
        },
        {
          "internalType": "uint256",
          "name": "tokenId",
          "type": "uint256"
        }
      ],
      "name": "ERC721InsufficientApproval",
      "type": "error"
    },
    {
      "inputs": [
        {
          "internalType": "address",
          "name": "approver",
          "type": "address"
        }
      ],
      "name": "ERC721InvalidApprover",
      "type": "error"
    },
    {
      "inputs": [
        {
          "internalType": "address",
          "name": "operator",
          "type": "address"
        }
      ],
      "name": "ERC721InvalidOperator",
      "type": "error"
    },
    {
      "inputs": [
        {
          "internalType": "address",
          "name": "owner",
          "type": "address"
        }
      ],
      "name": "ERC721InvalidOwner",
      "type": "error"
    },
    {
      "inputs": [
        {
          "internalType": "address",
          "name": "receiver",
          "type": "address"
        }
      ],
      "name": "ERC721InvalidReceiver",
      "type": "error"
    },
    {
      "inputs": [
        {
          "internalType": "address",
          "name": "sender",
          "type": "address"
        }
      ],
      "name": "ERC721InvalidSender",
      "type": "error"
    },
    {
      "inputs": [
        {
          "internalType": "uint256",
          "name": "tokenId",
          "type": "uint256"
        }
      ],
      "name": "ERC721NonexistentToken",
      "type": "error"
    },
    {
      "inputs": [
        {
          "internalType": "address",
          "name": "have",
          "type": "address"
        },
        {
          "internalType": "address",
          "name": "want",
          "type": "address"
        }
      ],
      "name": "OnlyCoordinatorCanFulfill",
      "type": "error"
    },
    {
      "inputs": [
        {
          "internalType": "address",
          "name": "have",
          "type": "address"
        },
        {
          "internalType": "address",
          "name": "owner",
          "type": "address"
        },
        {
          "internalType": "address",
          "name": "coordinator",
          "type": "address"
        }
      ],
      "name": "OnlyOwnerOrCoordinator",
      "type": "error"
    },
    {
      "inputs": [],
      "name": "RandomIpfsNft_NeedMoreETHSent",
      "type": "error"
    },
    {
      "inputs": [],
      "name": "RandomIpfsNft_RangeOutOfBounds",
      "type": "error"
    },
    {
      "inputs": [],
      "name": "RandomIpfsNft_TransferFailed",
      "type": "error"
    },
    {
      "inputs": [],
      "name": "ZeroAddress",
      "type": "error"
    },
    {
      "anonymous": false,
      "inputs": [
        {
          "indexed": true,
          "internalType": "address",
          "name": "owner",
          "type": "address"
        },
        {
          "indexed": true,
          "internalType": "address",
          "name": "approved",
          "type": "address"
        },
        {
          "indexed": true,
          "internalType": "uint256",
          "name": "tokenId",
          "type": "uint256"
        }
      ],
      "name": "Approval",
      "type": "event"
    },
    {
      "anonymous": false,
      "inputs": [
        {
          "indexed": true,
          "internalType": "address",
          "name": "owner",
          "type": "address"
        },
        {
          "indexed": true,
          "internalType": "address",
          "name": "operator",
          "type": "address"
        },
        {
          "indexed": false,
          "internalType": "bool",
          "name": "approved",
          "type": "bool"
        }
      ],
      "name": "ApprovalForAll",
      "type": "event"
    },
    {
      "anonymous": false,
      "inputs": [
        {
          "indexed": false,
          "internalType": "uint256",
          "name": "_fromTokenId",
          "type": "uint256"
        },
        {
          "indexed": false,
          "internalType": "uint256",
          "name": "_toTokenId",
          "type": "uint256"
        }
      ],
      "name": "BatchMetadataUpdate",
      "type": "event"
    },
    {
      "anonymous": false,
      "inputs": [
        {
          "indexed": false,
          "internalType": "address",
          "name": "vrfCoordinator",
          "type": "address"
        }
      ],
      "name": "CoordinatorSet",
      "type": "event"
    },
    {
      "anonymous": false,
      "inputs": [
        {
          "indexed": false,
          "internalType": "uint256",
          "name": "_tokenId",
          "type": "uint256"
        }
      ],
      "name": "MetadataUpdate",
      "type": "event"
    },
    {
      "anonymous": false,
      "inputs": [
        {
          "indexed": false,
          "internalType": "address",
          "name": "minter",
          "type": "address"
        }
      ],
      "name": "NFTCustomMinted",
      "type": "event"
    },
    {
      "anonymous": false,
      "inputs": [
        {
          "indexed": false,
          "internalType": "enum RandomIpfsNft.Rarity",
          "name": "rarity",
          "type": "uint8"
        },
        {
          "indexed": false,
          "internalType": "address",
          "name": "minter",
          "type": "address"
        }
      ],
      "name": "NFTMinted",
      "type": "event"
    },
    {
      "anonymous": false,
      "inputs": [
        {
          "indexed": true,
          "internalType": "uint256",
          "name": "requestId",
          "type": "uint256"
        },
        {
          "indexed": false,
          "internalType": "address",
          "name": "requester",
          "type": "address"
        }
      ],
      "name": "NFTRequested",
      "type": "event"
    },
    {
      "anonymous": false,
      "inputs": [
        {
          "indexed": true,
          "internalType": "address",
          "name": "from",
          "type": "address"
        },
        {
          "indexed": true,
          "internalType": "address",
          "name": "to",
          "type": "address"
        }
      ],
      "name": "OwnershipTransferRequested",
      "type": "event"
    },
    {
      "anonymous": false,
      "inputs": [
        {
          "indexed": true,
          "internalType": "address",
          "name": "from",
          "type": "address"
        },
        {
          "indexed": true,
          "internalType": "address",
          "name": "to",
          "type": "address"
        }
      ],
      "name": "OwnershipTransferred",
      "type": "event"
    },
    {
      "anonymous": false,
      "inputs": [
        {
          "indexed": true,
          "internalType": "address",
          "name": "from",
          "type": "address"
        },
        {
          "indexed": true,
          "internalType": "address",
          "name": "to",
          "type": "address"
        },
        {
          "indexed": true,
          "internalType": "uint256",
          "name": "tokenId",
          "type": "uint256"
        }
      ],
      "name": "Transfer",
      "type": "event"
    },
    {
      "inputs": [],
      "name": "acceptOwnership",
      "outputs": [],
      "stateMutability": "nonpayable",
      "type": "function"
    },
    {
      "inputs": [
        {
          "internalType": "address",
          "name": "to",
          "type": "address"
        },
        {
          "internalType": "uint256",
          "name": "tokenId",
          "type": "uint256"
        }
      ],
      "name": "approve",
      "outputs": [],
      "stateMutability": "nonpayable",
      "type": "function"
    },
    {
      "inputs": [
        {
          "internalType": "address",
          "name": "owner",
          "type": "address"
        }
      ],
      "name": "balanceOf",
      "outputs": [
        {
          "internalType": "uint256",
          "name": "",
          "type": "uint256"
        }
      ],
      "stateMutability": "view",
      "type": "function"
    },
    {
      "inputs": [
        {
          "internalType": "string",
          "name": "tokenUri",
          "type": "string"
        }
      ],
      "name": "customMintNft",
      "outputs": [],
      "stateMutability": "payable",
      "type": "function"
    },
    {
      "inputs": [
        {
          "internalType": "uint256",
          "name": "tokenId",
          "type": "uint256"
        }
      ],
      "name": "getApproved",
      "outputs": [
        {
          "internalType": "address",
          "name": "",
          "type": "address"
        }
      ],
      "stateMutability": "view",
      "type": "function"
    },
    {
      "inputs": [],
      "name": "getChanceArray",
      "outputs": [
        {
          "internalType": "uint256[10]",
          "name": "",
          "type": "uint256[10]"
        }
      ],
      "stateMutability": "pure",
      "type": "function"
    },
    {
      "inputs": [],
      "name": "getMintFee",
      "outputs": [
        {
          "internalType": "uint256",
          "name": "",
          "type": "uint256"
        }
      ],
      "stateMutability": "view",
      "type": "function"
    },
    {
      "inputs": [
        {
          "internalType": "uint256",
          "name": "moddedRng",
          "type": "uint256"
        }
      ],
      "name": "getRarityFromModdedRng",
      "outputs": [
        {
          "internalType": "enum RandomIpfsNft.Rarity",
          "name": "",
          "type": "uint8"
        }
      ],
      "stateMutability": "pure",
      "type": "function"
    },
    {
      "inputs": [],
      "name": "getTokenCounter",
      "outputs": [
        {
          "internalType": "uint256",
          "name": "",
          "type": "uint256"
        }
      ],
      "stateMutability": "view",
      "type": "function"
    },
    {
      "inputs": [
        {
          "internalType": "uint256",
          "name": "index",
          "type": "uint256"
        }
      ],
      "name": "getTokenURIs",
      "outputs": [
        {
          "internalType": "string",
          "name": "",
          "type": "string"
        }
      ],
      "stateMutability": "view",
      "type": "function"
    },
    {
      "inputs": [
        {
          "internalType": "address",
          "name": "owner",
          "type": "address"
        },
        {
          "internalType": "address",
          "name": "operator",
          "type": "address"
        }
      ],
      "name": "isApprovedForAll",
      "outputs": [
        {
          "internalType": "bool",
          "name": "",
          "type": "bool"
        }
      ],
      "stateMutability": "view",
      "type": "function"
    },
    {
      "inputs": [],
      "name": "name",
      "outputs": [
        {
          "internalType": "string",
          "name": "",
          "type": "string"
        }
      ],
      "stateMutability": "view",
      "type": "function"
    },
    {
      "inputs": [],
      "name": "owner",
      "outputs": [
        {
          "internalType": "address",
          "name": "",
          "type": "address"
        }
      ],
      "stateMutability": "view",
      "type": "function"
    },
    {
      "inputs": [
        {
          "internalType": "uint256",
          "name": "tokenId",
          "type": "uint256"
        }
      ],
      "name": "ownerOf",
      "outputs": [
        {
          "internalType": "address",
          "name": "",
          "type": "address"
        }
      ],
      "stateMutability": "view",
      "type": "function"
    },
    {
      "inputs": [
        {
          "internalType": "uint256",
          "name": "requestId",
          "type": "uint256"
        },
        {
          "internalType": "uint256[]",
          "name": "randomWords",
          "type": "uint256[]"
        }
      ],
      "name": "rawFulfillRandomWords",
      "outputs": [],
      "stateMutability": "nonpayable",
      "type": "function"
    },
    {
      "inputs": [],
      "name": "requestNft",
      "outputs": [
        {
          "internalType": "uint256",
          "name": "requestId",
          "type": "uint256"
        }
      ],
      "stateMutability": "payable",
      "type": "function"
    },
    {
      "inputs": [],
      "name": "s_subscriptionId",
      "outputs": [
        {
          "internalType": "uint256",
          "name": "",
          "type": "uint256"
        }
      ],
      "stateMutability": "view",
      "type": "function"
    },
    {
      "inputs": [],
      "name": "s_vrfCoordinator",
      "outputs": [
        {
          "internalType": "contract IVRFCoordinatorV2Plus",
          "name": "",
          "type": "address"
        }
      ],
      "stateMutability": "view",
      "type": "function"
    },
    {
      "inputs": [
        {
          "internalType": "address",
          "name": "from",
          "type": "address"
        },
        {
          "internalType": "address",
          "name": "to",
          "type": "address"
        },
        {
          "internalType": "uint256",
          "name": "tokenId",
          "type": "uint256"
        }
      ],
      "name": "safeTransferFrom",
      "outputs": [],
      "stateMutability": "nonpayable",
      "type": "function"
    },
    {
      "inputs": [
        {
          "internalType": "address",
          "name": "from",
          "type": "address"
        },
        {
          "internalType": "address",
          "name": "to",
          "type": "address"
        },
        {
          "internalType": "uint256",
          "name": "tokenId",
          "type": "uint256"
        },
        {
          "internalType": "bytes",
          "name": "data",
          "type": "bytes"
        }
      ],
      "name": "safeTransferFrom",
      "outputs": [],
      "stateMutability": "nonpayable",
      "type": "function"
    },
    {
      "inputs": [
        {
          "internalType": "address",
          "name": "operator",
          "type": "address"
        },
        {
          "internalType": "bool",
          "name": "approved",
          "type": "bool"
        }
      ],
      "name": "setApprovalForAll",
      "outputs": [],
      "stateMutability": "nonpayable",
      "type": "function"
    },
    {
      "inputs": [
        {
          "internalType": "address",
          "name": "_vrfCoordinator",
          "type": "address"
        }
      ],
      "name": "setCoordinator",
      "outputs": [],
      "stateMutability": "nonpayable",
      "type": "function"
    },
    {
      "inputs": [
        {
          "internalType": "bytes4",
          "name": "interfaceId",
          "type": "bytes4"
        }
      ],
      "name": "supportsInterface",
      "outputs": [
        {
          "internalType": "bool",
          "name": "",
          "type": "bool"
        }
      ],
      "stateMutability": "view",
      "type": "function"
    },
    {
      "inputs": [],
      "name": "symbol",
      "outputs": [
        {
          "internalType": "string",
          "name": "",
          "type": "string"
        }
      ],
      "stateMutability": "view",
      "type": "function"
    },
    {
      "inputs": [
        {
          "internalType": "uint256",
          "name": "tokenId",
          "type": "uint256"
        }
      ],
      "name": "tokenURI",
      "outputs": [
        {
          "internalType": "string",
          "name": "",
          "type": "string"
        }
      ],
      "stateMutability": "view",
      "type": "function"
    },
    {
      "inputs": [
        {
          "internalType": "address",
          "name": "from",
          "type": "address"
        },
        {
          "internalType": "address",
          "name": "to",
          "type": "address"
        },
        {
          "internalType": "uint256",
          "name": "tokenId",
          "type": "uint256"
        }
      ],
      "name": "transferFrom",
      "outputs": [],
      "stateMutability": "nonpayable",
      "type": "function"
    },
    {
      "inputs": [
        {
          "internalType": "address",
          "name": "to",
          "type": "address"
        }
      ],
      "name": "transferOwnership",
      "outputs": [],
      "stateMutability": "nonpayable",
      "type": "function"
    },
    {
      "inputs": [],
      "name": "withdrawETH",
      "outputs": [],
      "stateMutability": "nonpayable",
      "type": "function"
    }
  ],
  "transactionHash": "0x34b32d16f7f05b690de1c1b60e86bfe516099a0bbcc36e503cf5ff20acb1ad8b",
  "args": [
    "0x5FbDB2315678afecb367f032d93F642f64180aa3",
    "31675570065253603387424928589901019919129491519458808714350904696737359537877",
    [
      "ipfs://QmQU5yjBnKYpVixgSAFYcKGMVSikE8hJBLM6AkrTECRMRx",
      "ipfs://QmNQ2xdK1R8esBWLXJfnwexucr9UvKvqH1ZnM7o9qJLmNn",
      "ipfs://Qmc2xTdoY1NWryExnsgh8Mjk6QSpWj8nEKFikNYqXjMG1S",
      "ipfs://QmTaWXWkvK6KqDj97FG4GRkXqcbDTTbDQnfiVuHQcV4ZCF",
      "ipfs://QmbpbjD5P4f3rRtVMS3ZYGR5sKbhuKHKdVPsH84qorgnZj",
      "ipfs://QmcgxHB8iWCyDmCKXTdt71anRc1Z6turngkdffWXzHYFpb",
      "ipfs://Qmf8KgPqrYWVtt3rhf2zVLS6sCuSYaoWDC6h8UM7i1FaNf",
      "ipfs://QmVRdWAfkE9r8sNXwGMMfGAdNoCvnbmMG4YBuxKREQtpSK",
      "ipfs://QmUaAyRMHnDoUXEEvMUR4jWLFLbq87GEfKi65Px25TzDM1",
      "ipfs://QmVYfqu4pJpsh6swxP9r8gjHh18HwYdwY847qFbyRuxKB7"
    ],
    "10000000000000000"
  ],
  "numDeployments": 1,
  "solcInputHash": "90e436f1dfe90b9f3dc022250113944e",
  "bytecode": "0x60a06040527f787d74caea10b2b357790d5b5247c2f63d1d91572a9846f780606e4d953677ae60001b600d5534801561003757600080fd5b50604051614f39380380614f3983398181016040528101906100599190610796565b6040518060400160405280600b81526020017f506f6b656d6f6e204e46540000000000000000000000000000000000000000008152506040518060400160405280600381526020017f504b4d000000000000000000000000000000000000000000000000000000000081525085338060008073ffffffffffffffffffffffffffffffffffffffff168273ffffffffffffffffffffffffffffffffffffffff1603610138576040517f08c379a000000000000000000000000000000000000000000000000000000000815260040161012f90610876565b60405180910390fd5b816000806101000a81548173ffffffffffffffffffffffffffffffffffffffff021916908373ffffffffffffffffffffffffffffffffffffffff160217905550600073ffffffffffffffffffffffffffffffffffffffff168173ffffffffffffffffffffffffffffffffffffffff16146101bc576101bb816102b360201b60201c565b5b505050600073ffffffffffffffffffffffffffffffffffffffff168173ffffffffffffffffffffffffffffffffffffffff1603610225576040517fd92e233d00000000000000000000000000000000000000000000000000000000815260040160405180910390fd5b80600260006101000a81548173ffffffffffffffffffffffffffffffffffffffff021916908373ffffffffffffffffffffffffffffffffffffffff1602179055505081600390816102769190610aad565b5080600490816102869190610aad565b50505082600a8190555081600c90600a6102a19291906103df565b50806080818152505050505050610beb565b3373ffffffffffffffffffffffffffffffffffffffff168173ffffffffffffffffffffffffffffffffffffffff1603610321576040517f08c379a000000000000000000000000000000000000000000000000000000000815260040161031890610bcb565b60405180910390fd5b80600160006101000a81548173ffffffffffffffffffffffffffffffffffffffff021916908373ffffffffffffffffffffffffffffffffffffffff1602179055508073ffffffffffffffffffffffffffffffffffffffff1660008054906101000a900473ffffffffffffffffffffffffffffffffffffffff1673ffffffffffffffffffffffffffffffffffffffff167fed8889f560326eb138920d842192f0eb3dd22b4f139c87a2c57538e05bae127860405160405180910390a350565b828054828255906000526020600020908101928215610427579160200282015b828111156104265782518290816104169190610aad565b50916020019190600101906103ff565b5b5090506104349190610438565b5090565b5b80821115610458576000818161044f919061045c565b50600101610439565b5090565b508054610468906108d0565b6000825580601f1061047a5750610499565b601f016020900490600052602060002090810190610498919061049c565b5b50565b5b808211156104b557600081600090555060010161049d565b5090565b6000604051905090565b600080fd5b600080fd5b600073ffffffffffffffffffffffffffffffffffffffff82169050919050565b60006104f8826104cd565b9050919050565b610508816104ed565b811461051357600080fd5b50565b600081519050610525816104ff565b92915050565b6000819050919050565b61053e8161052b565b811461054957600080fd5b50565b60008151905061055b81610535565b92915050565b600080fd5b6000601f19601f8301169050919050565b7f4e487b7100000000000000000000000000000000000000000000000000000000600052604160045260246000fd5b6105af82610566565b810181811067ffffffffffffffff821117156105ce576105cd610577565b5b80604052505050565b60006105e16104b9565b90506105ed82826105a6565b919050565b600067ffffffffffffffff82111561060d5761060c610577565b5b602082029050919050565b600080fd5b600080fd5b600067ffffffffffffffff82111561063d5761063c610577565b5b61064682610566565b9050602081019050919050565b60005b83811015610671578082015181840152602081019050610656565b60008484015250505050565b600061069061068b84610622565b6105d7565b9050828152602081018484840111156106ac576106ab61061d565b5b6106b7848285610653565b509392505050565b600082601f8301126106d4576106d3610561565b5b81516106e484826020860161067d565b91505092915050565b60006107006106fb846105f2565b6105d7565b9050806020840283018581111561071a57610719610618565b5b835b8181101561076157805167ffffffffffffffff81111561073f5761073e610561565b5b80860161074c89826106bf565b8552602085019450505060208101905061071c565b5050509392505050565b600082601f8301126107805761077f610561565b5b600a61078d8482856106ed565b91505092915050565b600080600080608085870312156107b0576107af6104c3565b5b60006107be87828801610516565b94505060206107cf8782880161054c565b935050604085015167ffffffffffffffff8111156107f0576107ef6104c8565b5b6107fc8782880161076b565b925050606061080d8782880161054c565b91505092959194509250565b600082825260208201905092915050565b7f43616e6e6f7420736574206f776e657220746f207a65726f0000000000000000600082015250565b6000610860601883610819565b915061086b8261082a565b602082019050919050565b6000602082019050818103600083015261088f81610853565b9050919050565b600081519050919050565b7f4e487b7100000000000000000000000000000000000000000000000000000000600052602260045260246000fd5b600060028204905060018216806108e857607f821691505b6020821081036108fb576108fa6108a1565b5b50919050565b60008190508160005260206000209050919050565b60006020601f8301049050919050565b600082821b905092915050565b6000600883026109637fffffffffffffffffffffffffffffffffffffffffffffffffffffffffffffffff82610926565b61096d8683610926565b95508019841693508086168417925050509392505050565b6000819050919050565b60006109aa6109a56109a08461052b565b610985565b61052b565b9050919050565b6000819050919050565b6109c48361098f565b6109d86109d0826109b1565b848454610933565b825550505050565b600090565b6109ed6109e0565b6109f88184846109bb565b505050565b5b81811015610a1c57610a116000826109e5565b6001810190506109fe565b5050565b601f821115610a6157610a3281610901565b610a3b84610916565b81016020851015610a4a578190505b610a5e610a5685610916565b8301826109fd565b50505b505050565b600082821c905092915050565b6000610a8460001984600802610a66565b1980831691505092915050565b6000610a9d8383610a73565b9150826002028217905092915050565b610ab682610896565b67ffffffffffffffff811115610acf57610ace610577565b5b610ad982546108d0565b610ae4828285610a20565b600060209050601f831160018114610b175760008415610b05578287015190505b610b0f8582610a91565b865550610b77565b601f198416610b2586610901565b60005b82811015610b4d57848901518255600182019150602085019450602081019050610b28565b86831015610b6a5784890151610b66601f891682610a73565b8355505b6001600288020188555050505b505050505050565b7f43616e6e6f74207472616e7366657220746f2073656c66000000000000000000600082015250565b6000610bb5601783610819565b9150610bc082610b7f565b602082019050919050565b60006020820190508181036000830152610be481610ba8565b9050919050565b608051614325610c1460003960008181610d3801528181611159015261153201526143256000f3fe6080604052600436106101b75760003560e01c80637e83bd8b116100ec578063aa1524911161008a578063ca17111b11610064578063ca17111b14610613578063e086e5ec1461062f578063e985e9c514610646578063f2fde38b14610683576101b7565b8063aa1524911461058f578063b88d4fde146105ad578063c87b56dd146105d6576101b7565b80638ea98117116100c65780638ea98117146104e757806395d89b41146105105780639eccacf61461053b578063a22cb46514610566576101b7565b80637e83bd8b146104545780638ac00021146104915780638da5cb5b146104bc576101b7565b80635dacf5f4116101595780636e02007d116101335780636e02007d146103aa57806370a08231146103d557806379ba5097146104125780637a5caab314610429576101b7565b80635dacf5f4146103055780636352211e14610330578063642241201461036d576101b7565b8063095ea7b311610195578063095ea7b3146102615780631fe543e31461028a57806323b872dd146102b357806342842e0e146102dc576101b7565b806301ffc9a7146101bc57806306fdde03146101f9578063081812fc14610224575b600080fd5b3480156101c857600080fd5b506101e360048036038101906101de9190612f55565b6106ac565b6040516101f09190612f9d565b60405180910390f35b34801561020557600080fd5b5061020e61070d565b60405161021b9190613048565b60405180910390f35b34801561023057600080fd5b5061024b600480360381019061024691906130a0565b61079f565b604051610258919061310e565b60405180910390f35b34801561026d57600080fd5b5061028860048036038101906102839190613155565b6107bb565b005b34801561029657600080fd5b506102b160048036038101906102ac91906131fa565b6107d1565b005b3480156102bf57600080fd5b506102da60048036038101906102d5919061325a565b610897565b005b3480156102e857600080fd5b5061030360048036038101906102fe919061325a565b610999565b005b34801561031157600080fd5b5061031a6109b9565b6040516103279190613358565b60405180910390f35b34801561033c57600080fd5b50610357600480360381019061035291906130a0565b610a19565b604051610364919061310e565b60405180910390f35b34801561037957600080fd5b50610394600480360381019061038f91906130a0565b610a2b565b6040516103a19190613048565b60405180910390f35b3480156103b657600080fd5b506103bf610adb565b6040516103cc9190613383565b60405180910390f35b3480156103e157600080fd5b506103fc60048036038101906103f7919061339e565b610ae5565b6040516104099190613383565b60405180910390f35b34801561041e57600080fd5b50610427610b9f565b005b34801561043557600080fd5b5061043e610d34565b60405161044b9190613383565b60405180910390f35b34801561046057600080fd5b5061047b600480360381019061047691906130a0565b610d5c565b6040516104889190613442565b60405180910390f35b34801561049d57600080fd5b506104a6610e38565b6040516104b39190613383565b60405180910390f35b3480156104c857600080fd5b506104d1610e3e565b6040516104de919061310e565b60405180910390f35b3480156104f357600080fd5b5061050e6004803603810190610509919061339e565b610e67565b005b34801561051c57600080fd5b50610525611048565b6040516105329190613048565b60405180910390f35b34801561054757600080fd5b506105506110da565b60405161055d91906134bc565b60405180910390f35b34801561057257600080fd5b5061058d60048036038101906105889190613503565b611100565b005b610597611116565b6040516105a49190613383565b60405180910390f35b3480156105b957600080fd5b506105d460048036038101906105cf9190613673565b6113b9565b005b3480156105e257600080fd5b506105fd60048036038101906105f891906130a0565b6113de565b60405161060a9190613048565b60405180910390f35b61062d60048036038101906106289190613797565b6114f1565b005b34801561063b57600080fd5b506106446115fa565b005b34801561065257600080fd5b5061066d600480360381019061066891906137e0565b6116a6565b60405161067a9190612f9d565b60405180910390f35b34801561068f57600080fd5b506106aa60048036038101906106a5919061339e565b61173a565b005b6000634906490660e01b7bffffffffffffffffffffffffffffffffffffffffffffffffffffffff1916827bffffffffffffffffffffffffffffffffffffffffffffffffffffffff1916148061070657506107058261174e565b5b9050919050565b60606003805461071c9061384f565b80601f01602080910402602001604051908101604052809291908181526020018280546107489061384f565b80156107955780601f1061076a57610100808354040283529160200191610795565b820191906000526020600020905b81548152906001019060200180831161077857829003601f168201915b5050505050905090565b60006107aa82611830565b506107b4826118b8565b9050919050565b6107cd82826107c86118f5565b6118fd565b5050565b600260009054906101000a900473ffffffffffffffffffffffffffffffffffffffff1673ffffffffffffffffffffffffffffffffffffffff163373ffffffffffffffffffffffffffffffffffffffff16146108875733600260009054906101000a900473ffffffffffffffffffffffffffffffffffffffff166040517f1cf993f400000000000000000000000000000000000000000000000000000000815260040161087e929190613880565b60405180910390fd5b61089283838361190f565b505050565b600073ffffffffffffffffffffffffffffffffffffffff168273ffffffffffffffffffffffffffffffffffffffff16036109095760006040517f64a0ae92000000000000000000000000000000000000000000000000000000008152600401610900919061310e565b60405180910390fd5b600061091d83836109186118f5565b611c4f565b90508373ffffffffffffffffffffffffffffffffffffffff168173ffffffffffffffffffffffffffffffffffffffff1614610993578382826040517f64283d7b00000000000000000000000000000000000000000000000000000000815260040161098a939291906138a9565b60405180910390fd5b50505050565b6109b4838383604051806020016040528060008152506113b9565b505050565b6109c1612ebc565b6000600a90506000604051806101400160405280838152602001838152602001838152602001838152602001838152602001838152602001838152602001838152602001838152602001838152509050809250505090565b6000610a2482611830565b9050919050565b6060600c8281548110610a4157610a406138e0565b5b906000526020600020018054610a569061384f565b80601f0160208091040260200160405190810160405280929190818152602001828054610a829061384f565b8015610acf5780601f10610aa457610100808354040283529160200191610acf565b820191906000526020600020905b815481529060010190602001808311610ab257829003601f168201915b50505050509050919050565b6000600b54905090565b60008073ffffffffffffffffffffffffffffffffffffffff168273ffffffffffffffffffffffffffffffffffffffff1603610b585760006040517f89c62b64000000000000000000000000000000000000000000000000000000008152600401610b4f919061310e565b60405180910390fd5b600660008373ffffffffffffffffffffffffffffffffffffffff1673ffffffffffffffffffffffffffffffffffffffff168152602001908152602001600020549050919050565b600160009054906101000a900473ffffffffffffffffffffffffffffffffffffffff1673ffffffffffffffffffffffffffffffffffffffff163373ffffffffffffffffffffffffffffffffffffffff1614610c2f576040517f08c379a0000000000000000000000000000000000000000000000000000000008152600401610c269061395b565b60405180910390fd5b60008060009054906101000a900473ffffffffffffffffffffffffffffffffffffffff169050336000806101000a81548173ffffffffffffffffffffffffffffffffffffffff021916908373ffffffffffffffffffffffffffffffffffffffff1602179055506000600160006101000a81548173ffffffffffffffffffffffffffffffffffffffff021916908373ffffffffffffffffffffffffffffffffffffffff1602179055503373ffffffffffffffffffffffffffffffffffffffff168173ffffffffffffffffffffffffffffffffffffffff167f8be0079c531659141344cd1fd0a4f28419497f9722a3daafe3b4186f6b6457e060405160405180910390a350565b60007f0000000000000000000000000000000000000000000000000000000000000000905090565b600080600090506000610d6d6109b9565b905060005b600a811015610e0057828510158015610dac57508181600a8110610d9957610d986138e0565b5b602002015183610da991906139aa565b85105b15610dce57806009811115610dc457610dc36133cb565b5b9350505050610e33565b8181600a8110610de157610de06138e0565b5b602002015183610df191906139aa565b92508080600101915050610d72565b506040517f2b8299b500000000000000000000000000000000000000000000000000000000815260040160405180910390fd5b919050565b600a5481565b60008060009054906101000a900473ffffffffffffffffffffffffffffffffffffffff16905090565b610e6f610e3e565b73ffffffffffffffffffffffffffffffffffffffff163373ffffffffffffffffffffffffffffffffffffffff1614158015610ef85750600260009054906101000a900473ffffffffffffffffffffffffffffffffffffffff1673ffffffffffffffffffffffffffffffffffffffff163373ffffffffffffffffffffffffffffffffffffffff1614155b15610f675733610f06610e3e565b600260009054906101000a900473ffffffffffffffffffffffffffffffffffffffff166040517f061db9c1000000000000000000000000000000000000000000000000000000008152600401610f5e939291906139de565b60405180910390fd5b600073ffffffffffffffffffffffffffffffffffffffff168173ffffffffffffffffffffffffffffffffffffffff1603610fcd576040517fd92e233d00000000000000000000000000000000000000000000000000000000815260040160405180910390fd5b80600260006101000a81548173ffffffffffffffffffffffffffffffffffffffff021916908373ffffffffffffffffffffffffffffffffffffffff1602179055507fd1a6a14209a385a964d036e404cb5cfb71f4000cdb03c9366292430787261be68160405161103d919061310e565b60405180910390a150565b6060600480546110579061384f565b80601f01602080910402602001604051908101604052809291908181526020018280546110839061384f565b80156110d05780601f106110a5576101008083540402835291602001916110d0565b820191906000526020600020905b8154815290600101906020018083116110b357829003601f168201915b5050505050905090565b600260009054906101000a900473ffffffffffffffffffffffffffffffffffffffff1681565b61111261110b6118f5565b8383611e69565b5050565b60006111576040518060400160405280600d81526020017f726571756573744e66742e2e2e0000000000000000000000000000000000000081525034611fd8565b7f00000000000000000000000000000000000000000000000000000000000000003410156111b1576040517feb7246a800000000000000000000000000000000000000000000000000000000815260040160405180910390fd5b600260009054906101000a900473ffffffffffffffffffffffffffffffffffffffff1673ffffffffffffffffffffffffffffffffffffffff16639b1c385e6040518060c00160405280600d548152602001600a548152602001600361ffff168152602001620493e063ffffffff168152602001600163ffffffff16815260200161124b604051806020016040528060001515815250612074565b8152506040518263ffffffff1660e01b815260040161126a9190613b48565b6020604051808303816000875af1158015611289573d6000803e3d6000fd5b505050506040513d601f19601f820116820180604052508101906112ad9190613b7f565b90506112ee6040518060400160405280600d81526020017f7265717565737449642e2e2e2e0000000000000000000000000000000000000081525082611fd8565b33600e600083815260200190815260200160002060006101000a81548173ffffffffffffffffffffffffffffffffffffffff021916908373ffffffffffffffffffffffffffffffffffffffff160217905550807f4e1c2f1eae56e29ec039a2b882eec626e6c420ed5a5b93a203c8b8b695e911b133604051611370919061310e565b60405180910390a26113b66040518060400160405280601b81526020017f4e4654526571756573746564206576656e7420656d69747465642e000000000081525061210c565b90565b6113c4848484610897565b6113d86113cf6118f5565b858585856121a5565b50505050565b60606113e982611830565b50600060096000848152602001908152602001600020805461140a9061384f565b80601f01602080910402602001604051908101604052809291908181526020018280546114369061384f565b80156114835780601f1061145857610100808354040283529160200191611483565b820191906000526020600020905b81548152906001019060200180831161146657829003601f168201915b505050505090506000611494612356565b905060008151036114a95781925050506114ec565b6000825111156114de5780826040516020016114c6929190613be8565b604051602081830303815290604052925050506114ec565b6114e78461236d565b925050505b919050565b6115306040518060400160405280601081526020017f637573746f6d4d696e744e66742e2e2e0000000000000000000000000000000081525034611fd8565b7f000000000000000000000000000000000000000000000000000000000000000034101561158a576040517feb7246a800000000000000000000000000000000000000000000000000000000815260040160405180910390fd5b6000600b54905061159d33600b546123d6565b6115a781836123f4565b600b60008154809291906115ba90613c0c565b91905055507f1393613fa386b2d74193ca11d90bab3842d31bb6bf92a68d3e041dcecda8a26c336040516115ee919061310e565b60405180910390a15050565b600047905060003373ffffffffffffffffffffffffffffffffffffffff168260405161162590613c85565b60006040518083038185875af1925050503d8060008114611662576040519150601f19603f3d011682016040523d82523d6000602084013e611667565b606091505b50509050806116a2576040517f5586f5d000000000000000000000000000000000000000000000000000000000815260040160405180910390fd5b5050565b6000600860008473ffffffffffffffffffffffffffffffffffffffff1673ffffffffffffffffffffffffffffffffffffffff16815260200190815260200160002060008373ffffffffffffffffffffffffffffffffffffffff1673ffffffffffffffffffffffffffffffffffffffff16815260200190815260200160002060009054906101000a900460ff16905092915050565b611742612450565b61174b816124e0565b50565b60007f80ac58cd000000000000000000000000000000000000000000000000000000007bffffffffffffffffffffffffffffffffffffffffffffffffffffffff1916827bffffffffffffffffffffffffffffffffffffffffffffffffffffffff1916148061181957507f5b5e139f000000000000000000000000000000000000000000000000000000007bffffffffffffffffffffffffffffffffffffffffffffffffffffffff1916827bffffffffffffffffffffffffffffffffffffffffffffffffffffffff1916145b8061182957506118288261260c565b5b9050919050565b60008061183c83612676565b9050600073ffffffffffffffffffffffffffffffffffffffff168173ffffffffffffffffffffffffffffffffffffffff16036118af57826040517f7e2732890000000000000000000000000000000000000000000000000000000081526004016118a69190613383565b60405180910390fd5b80915050919050565b60006007600083815260200190815260200160002060009054906101000a900473ffffffffffffffffffffffffffffffffffffffff169050919050565b600033905090565b61190a83838360016126b3565b505050565b600260009054906101000a900473ffffffffffffffffffffffffffffffffffffffff1673ffffffffffffffffffffffffffffffffffffffff163373ffffffffffffffffffffffffffffffffffffffff161461199f576040517f08c379a000000000000000000000000000000000000000000000000000000000815260040161199690613ce6565b60405180910390fd5b6119f96040518060400160405280601681526020017f66756c66696c6c52616e646f6d576f7264732e2e2e2e0000000000000000000081525084848460008181106119ed576119ec6138e0565b5b90506020020135612878565b6000600e600085815260200190815260200160002060009054906101000a900473ffffffffffffffffffffffffffffffffffffffff169050611a706040518060400160405280600c81526020017f6e66744f776e65722e2e2e2e000000000000000000000000000000000000000081525082612917565b6000600b6000815480929190611a8590613c0c565b919050559050611aca6040518060400160405280600e81526020017f6e6577546f6b656e49642e2e2e2e00000000000000000000000000000000000081525082611fd8565b6000606485856000818110611ae257611ae16138e0565b5b90506020020135611af39190613d35565b9050611b346040518060400160405280600d81526020017f6d6f64646564526e672e2e2e2e0000000000000000000000000000000000000081525082611fd8565b6000611b3f82610d5c565b9050611b4b84846123d6565b611c0d83600c836009811115611b6457611b636133cb565b5b81548110611b7557611b746138e0565b5b906000526020600020018054611b8a9061384f565b80601f0160208091040260200160405190810160405280929190818152602001828054611bb69061384f565b8015611c035780601f10611bd857610100808354040283529160200191611c03565b820191906000526020600020905b815481529060010190602001808311611be657829003601f168201915b50505050506123f4565b7fab79897476febbd649710b1bd1dc3e93a316d3dee65f65b022ab89a4b7e206b58185604051611c3e929190613d66565b60405180910390a150505050505050565b600080611c5b84612676565b9050600073ffffffffffffffffffffffffffffffffffffffff168373ffffffffffffffffffffffffffffffffffffffff1614611c9d57611c9c8184866129b3565b5b600073ffffffffffffffffffffffffffffffffffffffff168173ffffffffffffffffffffffffffffffffffffffff1614611d2e57611cdf6000856000806126b3565b6001600660008373ffffffffffffffffffffffffffffffffffffffff1673ffffffffffffffffffffffffffffffffffffffff168152602001908152602001600020600082825403925050819055505b600073ffffffffffffffffffffffffffffffffffffffff168573ffffffffffffffffffffffffffffffffffffffff1614611db1576001600660008773ffffffffffffffffffffffffffffffffffffffff1673ffffffffffffffffffffffffffffffffffffffff168152602001908152602001600020600082825401925050819055505b846005600086815260200190815260200160002060006101000a81548173ffffffffffffffffffffffffffffffffffffffff021916908373ffffffffffffffffffffffffffffffffffffffff160217905550838573ffffffffffffffffffffffffffffffffffffffff168273ffffffffffffffffffffffffffffffffffffffff167fddf252ad1be2c89b69c2b068fc378daa952ba7f163c4a11628f55a4df523b3ef60405160405180910390a4809150509392505050565b600073ffffffffffffffffffffffffffffffffffffffff168273ffffffffffffffffffffffffffffffffffffffff1603611eda57816040517f5b08ba18000000000000000000000000000000000000000000000000000000008152600401611ed1919061310e565b60405180910390fd5b80600860008573ffffffffffffffffffffffffffffffffffffffff1673ffffffffffffffffffffffffffffffffffffffff16815260200190815260200160002060008473ffffffffffffffffffffffffffffffffffffffff1673ffffffffffffffffffffffffffffffffffffffff16815260200190815260200160002060006101000a81548160ff0219169083151502179055508173ffffffffffffffffffffffffffffffffffffffff168373ffffffffffffffffffffffffffffffffffffffff167f17307eab39ab6107e8899845ad3d59bd9653f200f220920489ca2b5937696c3183604051611fcb9190612f9d565b60405180910390a3505050565b6120708282604051602401611fee929190613d8f565b6040516020818303038152906040527fb60e72cc000000000000000000000000000000000000000000000000000000007bffffffffffffffffffffffffffffffffffffffffffffffffffffffff19166020820180517bffffffffffffffffffffffffffffffffffffffffffffffffffffffff8381831617835250505050612a77565b5050565b60607f92fd13387c7fe7befbc38d303d6468778fb9731bc4583f17d92989c6fcfdeaaa826040516024016120a89190613dea565b604051602081830303815290604052907bffffffffffffffffffffffffffffffffffffffffffffffffffffffff19166020820180517bffffffffffffffffffffffffffffffffffffffffffffffffffffffff83818316178352505050509050919050565b6121a2816040516024016121209190613048565b6040516020818303038152906040527f41304fac000000000000000000000000000000000000000000000000000000007bffffffffffffffffffffffffffffffffffffffffffffffffffffffff19166020820180517bffffffffffffffffffffffffffffffffffffffffffffffffffffffff8381831617835250505050612a77565b50565b60008373ffffffffffffffffffffffffffffffffffffffff163b111561234f578273ffffffffffffffffffffffffffffffffffffffff1663150b7a02868685856040518563ffffffff1660e01b81526004016122049493929190613e4f565b6020604051808303816000875af192505050801561224057506040513d601f19601f8201168201806040525081019061223d9190613eb0565b60015b6122c4573d8060008114612270576040519150601f19603f3d011682016040523d82523d6000602084013e612275565b606091505b5060008151036122bc57836040517f64a0ae920000000000000000000000000000000000000000000000000000000081526004016122b3919061310e565b60405180910390fd5b805181602001fd5b63150b7a0260e01b7bffffffffffffffffffffffffffffffffffffffffffffffffffffffff1916817bffffffffffffffffffffffffffffffffffffffffffffffffffffffff19161461234d57836040517f64a0ae92000000000000000000000000000000000000000000000000000000008152600401612344919061310e565b60405180910390fd5b505b5050505050565b606060405180602001604052806000815250905090565b606061237882611830565b506000612383612356565b905060008151116123a357604051806020016040528060008152506123ce565b806123ad84612a91565b6040516020016123be929190613be8565b6040516020818303038152906040525b915050919050565b6123f0828260405180602001604052806000815250612b5f565b5050565b80600960008481526020019081526020016000209081612414919061407f565b507ff8e1a15aba9398e019f0b49df1a4fde98ee17ae345cb5f6b5e2c27f5033e8ce7826040516124449190613383565b60405180910390a15050565b60008054906101000a900473ffffffffffffffffffffffffffffffffffffffff1673ffffffffffffffffffffffffffffffffffffffff163373ffffffffffffffffffffffffffffffffffffffff16146124de576040517f08c379a00000000000000000000000000000000000000000000000000000000081526004016124d59061419d565b60405180910390fd5b565b3373ffffffffffffffffffffffffffffffffffffffff168173ffffffffffffffffffffffffffffffffffffffff160361254e576040517f08c379a000000000000000000000000000000000000000000000000000000000815260040161254590614209565b60405180910390fd5b80600160006101000a81548173ffffffffffffffffffffffffffffffffffffffff021916908373ffffffffffffffffffffffffffffffffffffffff1602179055508073ffffffffffffffffffffffffffffffffffffffff1660008054906101000a900473ffffffffffffffffffffffffffffffffffffffff1673ffffffffffffffffffffffffffffffffffffffff167fed8889f560326eb138920d842192f0eb3dd22b4f139c87a2c57538e05bae127860405160405180910390a350565b60007f01ffc9a7000000000000000000000000000000000000000000000000000000007bffffffffffffffffffffffffffffffffffffffffffffffffffffffff1916827bffffffffffffffffffffffffffffffffffffffffffffffffffffffff1916149050919050565b60006005600083815260200190815260200160002060009054906101000a900473ffffffffffffffffffffffffffffffffffffffff169050919050565b80806126ec5750600073ffffffffffffffffffffffffffffffffffffffff168273ffffffffffffffffffffffffffffffffffffffff1614155b156128205760006126fc84611830565b9050600073ffffffffffffffffffffffffffffffffffffffff168373ffffffffffffffffffffffffffffffffffffffff161415801561276757508273ffffffffffffffffffffffffffffffffffffffff168173ffffffffffffffffffffffffffffffffffffffff1614155b801561277a575061277881846116a6565b155b156127bc57826040517fa9fbf51f0000000000000000000000000000000000000000000000000000000081526004016127b3919061310e565b60405180910390fd5b811561281e57838573ffffffffffffffffffffffffffffffffffffffff168273ffffffffffffffffffffffffffffffffffffffff167f8c5be1e5ebec7d5bd14f71427d1e84f3dd0314c0f7b2291e5b200ac8c7c3b92560405160405180910390a45b505b836007600085815260200190815260200160002060006101000a81548173ffffffffffffffffffffffffffffffffffffffff021916908373ffffffffffffffffffffffffffffffffffffffff16021790555050505050565b61291283838360405160240161289093929190614229565b6040516020818303038152906040527fca47c4eb000000000000000000000000000000000000000000000000000000007bffffffffffffffffffffffffffffffffffffffffffffffffffffffff19166020820180517bffffffffffffffffffffffffffffffffffffffffffffffffffffffff8381831617835250505050612a77565b505050565b6129af828260405160240161292d929190614267565b6040516020818303038152906040527f319af333000000000000000000000000000000000000000000000000000000007bffffffffffffffffffffffffffffffffffffffffffffffffffffffff19166020820180517bffffffffffffffffffffffffffffffffffffffffffffffffffffffff8381831617835250505050612a77565b5050565b6129be838383612b83565b612a7257600073ffffffffffffffffffffffffffffffffffffffff168373ffffffffffffffffffffffffffffffffffffffff1603612a3357806040517f7e273289000000000000000000000000000000000000000000000000000000008152600401612a2a9190613383565b60405180910390fd5b81816040517f177e802f000000000000000000000000000000000000000000000000000000008152600401612a69929190614297565b60405180910390fd5b505050565b612a8e81612a86612c44612c65565b63ffffffff16565b50565b606060006001612aa084612c70565b01905060008167ffffffffffffffff811115612abf57612abe613548565b5b6040519080825280601f01601f191660200182016040528015612af15781602001600182028036833780820191505090505b509050600082602001820190505b600115612b54578080600190039150507f3031323334353637383961626364656600000000000000000000000000000000600a86061a8153600a8581612b4857612b47613d06565b5b04945060008503612aff575b819350505050919050565b612b698383612dc3565b612b7e612b746118f5565b60008585856121a5565b505050565b60008073ffffffffffffffffffffffffffffffffffffffff168373ffffffffffffffffffffffffffffffffffffffff1614158015612c3b57508273ffffffffffffffffffffffffffffffffffffffff168473ffffffffffffffffffffffffffffffffffffffff161480612bfc5750612bfb84846116a6565b5b80612c3a57508273ffffffffffffffffffffffffffffffffffffffff16612c22836118b8565b73ffffffffffffffffffffffffffffffffffffffff16145b5b90509392505050565b60006a636f6e736f6c652e6c6f679050600080835160208501845afa505050565b612edf819050919050565b600080600090507a184f03e93ff9f4daa797ed6e38ed64bf6a1f0100000000000000008310612cce577a184f03e93ff9f4daa797ed6e38ed64bf6a1f0100000000000000008381612cc457612cc3613d06565b5b0492506040810190505b6d04ee2d6d415b85acef81000000008310612d0b576d04ee2d6d415b85acef81000000008381612d0157612d00613d06565b5b0492506020810190505b662386f26fc100008310612d3a57662386f26fc100008381612d3057612d2f613d06565b5b0492506010810190505b6305f5e1008310612d63576305f5e1008381612d5957612d58613d06565b5b0492506008810190505b6127108310612d88576127108381612d7e57612d7d613d06565b5b0492506004810190505b60648310612dab5760648381612da157612da0613d06565b5b0492506002810190505b600a8310612dba576001810190505b80915050919050565b600073ffffffffffffffffffffffffffffffffffffffff168273ffffffffffffffffffffffffffffffffffffffff1603612e355760006040517f64a0ae92000000000000000000000000000000000000000000000000000000008152600401612e2c919061310e565b60405180910390fd5b6000612e4383836000611c4f565b9050600073ffffffffffffffffffffffffffffffffffffffff168173ffffffffffffffffffffffffffffffffffffffff1614612eb75760006040517f73c6ac6e000000000000000000000000000000000000000000000000000000008152600401612eae919061310e565b60405180910390fd5b505050565b604051806101400160405280600a90602082028036833780820191505090505090565b612ee76142c0565b565b6000604051905090565b600080fd5b600080fd5b60007fffffffff0000000000000000000000000000000000000000000000000000000082169050919050565b612f3281612efd565b8114612f3d57600080fd5b50565b600081359050612f4f81612f29565b92915050565b600060208284031215612f6b57612f6a612ef3565b5b6000612f7984828501612f40565b91505092915050565b60008115159050919050565b612f9781612f82565b82525050565b6000602082019050612fb26000830184612f8e565b92915050565b600081519050919050565b600082825260208201905092915050565b60005b83811015612ff2578082015181840152602081019050612fd7565b60008484015250505050565b6000601f19601f8301169050919050565b600061301a82612fb8565b6130248185612fc3565b9350613034818560208601612fd4565b61303d81612ffe565b840191505092915050565b60006020820190508181036000830152613062818461300f565b905092915050565b6000819050919050565b61307d8161306a565b811461308857600080fd5b50565b60008135905061309a81613074565b92915050565b6000602082840312156130b6576130b5612ef3565b5b60006130c48482850161308b565b91505092915050565b600073ffffffffffffffffffffffffffffffffffffffff82169050919050565b60006130f8826130cd565b9050919050565b613108816130ed565b82525050565b600060208201905061312360008301846130ff565b92915050565b613132816130ed565b811461313d57600080fd5b50565b60008135905061314f81613129565b92915050565b6000806040838503121561316c5761316b612ef3565b5b600061317a85828601613140565b925050602061318b8582860161308b565b9150509250929050565b600080fd5b600080fd5b600080fd5b60008083601f8401126131ba576131b9613195565b5b8235905067ffffffffffffffff8111156131d7576131d661319a565b5b6020830191508360208202830111156131f3576131f261319f565b5b9250929050565b60008060006040848603121561321357613212612ef3565b5b60006132218682870161308b565b935050602084013567ffffffffffffffff81111561324257613241612ef8565b5b61324e868287016131a4565b92509250509250925092565b60008060006060848603121561327357613272612ef3565b5b600061328186828701613140565b935050602061329286828701613140565b92505060406132a38682870161308b565b9150509250925092565b6000600a9050919050565b600081905092915050565b6000819050919050565b6132d68161306a565b82525050565b60006132e883836132cd565b60208301905092915050565b6000602082019050919050565b61330a816132ad565b61331481846132b8565b925061331f826132c3565b8060005b8381101561335057815161333787826132dc565b9650613342836132f4565b925050600181019050613323565b505050505050565b60006101408201905061336e6000830184613301565b92915050565b61337d8161306a565b82525050565b60006020820190506133986000830184613374565b92915050565b6000602082840312156133b4576133b3612ef3565b5b60006133c284828501613140565b91505092915050565b7f4e487b7100000000000000000000000000000000000000000000000000000000600052602160045260246000fd5b600a811061340b5761340a6133cb565b5b50565b600081905061341c826133fa565b919050565b600061342c8261340e565b9050919050565b61343c81613421565b82525050565b60006020820190506134576000830184613433565b92915050565b6000819050919050565b600061348261347d613478846130cd565b61345d565b6130cd565b9050919050565b600061349482613467565b9050919050565b60006134a682613489565b9050919050565b6134b68161349b565b82525050565b60006020820190506134d160008301846134ad565b92915050565b6134e081612f82565b81146134eb57600080fd5b50565b6000813590506134fd816134d7565b92915050565b6000806040838503121561351a57613519612ef3565b5b600061352885828601613140565b9250506020613539858286016134ee565b9150509250929050565b600080fd5b7f4e487b7100000000000000000000000000000000000000000000000000000000600052604160045260246000fd5b61358082612ffe565b810181811067ffffffffffffffff8211171561359f5761359e613548565b5b80604052505050565b60006135b2612ee9565b90506135be8282613577565b919050565b600067ffffffffffffffff8211156135de576135dd613548565b5b6135e782612ffe565b9050602081019050919050565b82818337600083830152505050565b6000613616613611846135c3565b6135a8565b90508281526020810184848401111561363257613631613543565b5b61363d8482856135f4565b509392505050565b600082601f83011261365a57613659613195565b5b813561366a848260208601613603565b91505092915050565b6000806000806080858703121561368d5761368c612ef3565b5b600061369b87828801613140565b94505060206136ac87828801613140565b93505060406136bd8782880161308b565b925050606085013567ffffffffffffffff8111156136de576136dd612ef8565b5b6136ea87828801613645565b91505092959194509250565b600067ffffffffffffffff82111561371157613710613548565b5b61371a82612ffe565b9050602081019050919050565b600061373a613735846136f6565b6135a8565b90508281526020810184848401111561375657613755613543565b5b6137618482856135f4565b509392505050565b600082601f83011261377e5761377d613195565b5b813561378e848260208601613727565b91505092915050565b6000602082840312156137ad576137ac612ef3565b5b600082013567ffffffffffffffff8111156137cb576137ca612ef8565b5b6137d784828501613769565b91505092915050565b600080604083850312156137f7576137f6612ef3565b5b600061380585828601613140565b925050602061381685828601613140565b9150509250929050565b7f4e487b7100000000000000000000000000000000000000000000000000000000600052602260045260246000fd5b6000600282049050600182168061386757607f821691505b60208210810361387a57613879613820565b5b50919050565b600060408201905061389560008301856130ff565b6138a260208301846130ff565b9392505050565b60006060820190506138be60008301866130ff565b6138cb6020830185613374565b6138d860408301846130ff565b949350505050565b7f4e487b7100000000000000000000000000000000000000000000000000000000600052603260045260246000fd5b7f4d7573742062652070726f706f736564206f776e657200000000000000000000600082015250565b6000613945601683612fc3565b91506139508261390f565b602082019050919050565b6000602082019050818103600083015261397481613938565b9050919050565b7f4e487b7100000000000000000000000000000000000000000000000000000000600052601160045260246000fd5b60006139b58261306a565b91506139c08361306a565b92508282019050808211156139d8576139d761397b565b5b92915050565b60006060820190506139f360008301866130ff565b613a0060208301856130ff565b613a0d60408301846130ff565b949350505050565b6000819050919050565b613a2881613a15565b82525050565b600061ffff82169050919050565b613a4581613a2e565b82525050565b600063ffffffff82169050919050565b613a6481613a4b565b82525050565b600081519050919050565b600082825260208201905092915050565b6000613a9182613a6a565b613a9b8185613a75565b9350613aab818560208601612fd4565b613ab481612ffe565b840191505092915050565b600060c083016000830151613ad76000860182613a1f565b506020830151613aea60208601826132cd565b506040830151613afd6040860182613a3c565b506060830151613b106060860182613a5b565b506080830151613b236080860182613a5b565b5060a083015184820360a0860152613b3b8282613a86565b9150508091505092915050565b60006020820190508181036000830152613b628184613abf565b905092915050565b600081519050613b7981613074565b92915050565b600060208284031215613b9557613b94612ef3565b5b6000613ba384828501613b6a565b91505092915050565b600081905092915050565b6000613bc282612fb8565b613bcc8185613bac565b9350613bdc818560208601612fd4565b80840191505092915050565b6000613bf48285613bb7565b9150613c008284613bb7565b91508190509392505050565b6000613c178261306a565b91507fffffffffffffffffffffffffffffffffffffffffffffffffffffffffffffffff8203613c4957613c4861397b565b5b600182019050919050565b600081905092915050565b50565b6000613c6f600083613c54565b9150613c7a82613c5f565b600082019050919050565b6000613c9082613c62565b9150819050919050565b7f4f6e6c7920565246436f6f7264696e61746f722063616e2063616c6c00000000600082015250565b6000613cd0601c83612fc3565b9150613cdb82613c9a565b602082019050919050565b60006020820190508181036000830152613cff81613cc3565b9050919050565b7f4e487b7100000000000000000000000000000000000000000000000000000000600052601260045260246000fd5b6000613d408261306a565b9150613d4b8361306a565b925082613d5b57613d5a613d06565b5b828206905092915050565b6000604082019050613d7b6000830185613433565b613d8860208301846130ff565b9392505050565b60006040820190508181036000830152613da9818561300f565b9050613db86020830184613374565b9392505050565b613dc881612f82565b82525050565b602082016000820151613de46000850182613dbf565b50505050565b6000602082019050613dff6000830184613dce565b92915050565b600082825260208201905092915050565b6000613e2182613a6a565b613e2b8185613e05565b9350613e3b818560208601612fd4565b613e4481612ffe565b840191505092915050565b6000608082019050613e6460008301876130ff565b613e7160208301866130ff565b613e7e6040830185613374565b8181036060830152613e908184613e16565b905095945050505050565b600081519050613eaa81612f29565b92915050565b600060208284031215613ec657613ec5612ef3565b5b6000613ed484828501613e9b565b91505092915050565b60008190508160005260206000209050919050565b60006020601f8301049050919050565b600082821b905092915050565b600060088302613f3f7fffffffffffffffffffffffffffffffffffffffffffffffffffffffffffffffff82613f02565b613f498683613f02565b95508019841693508086168417925050509392505050565b6000613f7c613f77613f728461306a565b61345d565b61306a565b9050919050565b6000819050919050565b613f9683613f61565b613faa613fa282613f83565b848454613f0f565b825550505050565b600090565b613fbf613fb2565b613fca818484613f8d565b505050565b5b81811015613fee57613fe3600082613fb7565b600181019050613fd0565b5050565b601f8211156140335761400481613edd565b61400d84613ef2565b8101602085101561401c578190505b61403061402885613ef2565b830182613fcf565b50505b505050565b600082821c905092915050565b600061405660001984600802614038565b1980831691505092915050565b600061406f8383614045565b9150826002028217905092915050565b61408882612fb8565b67ffffffffffffffff8111156140a1576140a0613548565b5b6140ab825461384f565b6140b6828285613ff2565b600060209050601f8311600181146140e957600084156140d7578287015190505b6140e18582614063565b865550614149565b601f1984166140f786613edd565b60005b8281101561411f578489015182556001820191506020850194506020810190506140fa565b8683101561413c5784890151614138601f891682614045565b8355505b6001600288020188555050505b505050505050565b7f4f6e6c792063616c6c61626c65206279206f776e657200000000000000000000600082015250565b6000614187601683612fc3565b915061419282614151565b602082019050919050565b600060208201905081810360008301526141b68161417a565b9050919050565b7f43616e6e6f74207472616e7366657220746f2073656c66000000000000000000600082015250565b60006141f3601783612fc3565b91506141fe826141bd565b602082019050919050565b60006020820190508181036000830152614222816141e6565b9050919050565b60006060820190508181036000830152614243818661300f565b90506142526020830185613374565b61425f6040830184613374565b949350505050565b60006040820190508181036000830152614281818561300f565b905061429060208301846130ff565b9392505050565b60006040820190506142ac60008301856130ff565b6142b96020830184613374565b9392505050565b7f4e487b7100000000000000000000000000000000000000000000000000000000600052605160045260246000fdfea2646970667358221220b26ba96ce8a3f5babc4758dadf673cf9788bc69b91149504e57f98421c96c26364736f6c634300081c0033",
  "devdoc": {
    "errors": {
      "ERC721IncorrectOwner(address,uint256,address)": [
        {
          "details": "Indicates an error related to the ownership over a particular token. Used in transfers.",
          "params": {
            "owner": "Address of the current owner of a token.",
            "sender": "Address whose tokens are being transferred.",
            "tokenId": "Identifier number of a token."
          }
        }
      ],
      "ERC721InsufficientApproval(address,uint256)": [
        {
          "details": "Indicates a failure with the `operator`s approval. Used in transfers.",
          "params": {
            "operator": "Address that may be allowed to operate on tokens without being their owner.",
            "tokenId": "Identifier number of a token."
          }
        }
      ],
      "ERC721InvalidApprover(address)": [
        {
          "details": "Indicates a failure with the `approver` of a token to be approved. Used in approvals.",
          "params": {
            "approver": "Address initiating an approval operation."
          }
        }
      ],
      "ERC721InvalidOperator(address)": [
        {
          "details": "Indicates a failure with the `operator` to be approved. Used in approvals.",
          "params": {
            "operator": "Address that may be allowed to operate on tokens without being their owner."
          }
        }
      ],
      "ERC721InvalidOwner(address)": [
        {
          "details": "Indicates that an address can't be an owner. For example, `address(0)` is a forbidden owner in ERC-20. Used in balance queries.",
          "params": {
            "owner": "Address of the current owner of a token."
          }
        }
      ],
      "ERC721InvalidReceiver(address)": [
        {
          "details": "Indicates a failure with the token `receiver`. Used in transfers.",
          "params": {
            "receiver": "Address to which tokens are being transferred."
          }
        }
      ],
      "ERC721InvalidSender(address)": [
        {
          "details": "Indicates a failure with the token `sender`. Used in transfers.",
          "params": {
            "sender": "Address whose tokens are being transferred."
          }
        }
      ],
      "ERC721NonexistentToken(uint256)": [
        {
          "details": "Indicates a `tokenId` whose `owner` is the zero address.",
          "params": {
            "tokenId": "Identifier number of a token."
          }
        }
      ]
    },
    "events": {
      "Approval(address,address,uint256)": {
        "details": "Emitted when `owner` enables `approved` to manage the `tokenId` token."
      },
      "ApprovalForAll(address,address,bool)": {
        "details": "Emitted when `owner` enables or disables (`approved`) `operator` to manage all of its assets."
      },
      "BatchMetadataUpdate(uint256,uint256)": {
        "details": "This event emits when the metadata of a range of tokens is changed. So that the third-party platforms such as NFT market could timely update the images and related attributes of the NFTs."
      },
      "MetadataUpdate(uint256)": {
        "details": "This event emits when the metadata of a token is changed. So that the third-party platforms such as NFT market could timely update the images and related attributes of the NFT."
      },
      "Transfer(address,address,uint256)": {
        "details": "Emitted when `tokenId` token is transferred from `from` to `to`."
      }
    },
    "kind": "dev",
    "methods": {
      "approve(address,uint256)": {
        "details": "See {IERC721-approve}."
      },
      "balanceOf(address)": {
        "details": "See {IERC721-balanceOf}."
      },
      "getApproved(uint256)": {
        "details": "See {IERC721-getApproved}."
      },
      "isApprovedForAll(address,address)": {
        "details": "See {IERC721-isApprovedForAll}."
      },
      "name()": {
        "details": "See {IERC721Metadata-name}."
      },
      "ownerOf(uint256)": {
        "details": "See {IERC721-ownerOf}."
      },
      "safeTransferFrom(address,address,uint256)": {
        "details": "See {IERC721-safeTransferFrom}."
      },
      "safeTransferFrom(address,address,uint256,bytes)": {
        "details": "See {IERC721-safeTransferFrom}."
      },
      "setApprovalForAll(address,bool)": {
        "details": "See {IERC721-setApprovalForAll}."
      },
      "supportsInterface(bytes4)": {
        "details": "See {IERC165-supportsInterface}"
      },
      "symbol()": {
        "details": "See {IERC721Metadata-symbol}."
      },
      "tokenURI(uint256)": {
        "details": "See {IERC721Metadata-tokenURI}."
      },
      "transferFrom(address,address,uint256)": {
        "details": "See {IERC721-transferFrom}."
      }
    },
    "version": 1
  },
  "userdoc": {
    "kind": "user",
    "methods": {
      "acceptOwnership()": {
        "notice": "Allows an ownership transfer to be completed by the recipient."
      },
      "owner()": {
        "notice": "Get the current owner"
      },
      "setCoordinator(address)": {
        "notice": "Sets the VRF Coordinator addressThis method should only be callable by the coordinator or contract owner"
      },
      "transferOwnership(address)": {
        "notice": "Allows an owner to begin transferring ownership to a new address."
      }
    },
    "version": 1
  },
  "storageLayout": {
    "storage": [
      {
        "astId": 29,
        "contract": "contracts/RandomIpfsNft.sol:RandomIpfsNft",
        "label": "s_owner",
        "offset": 0,
        "slot": "0",
        "type": "t_address"
      },
      {
        "astId": 31,
        "contract": "contracts/RandomIpfsNft.sol:RandomIpfsNft",
        "label": "s_pendingOwner",
        "offset": 0,
        "slot": "1",
        "type": "t_address"
      },
      {
        "astId": 231,
        "contract": "contracts/RandomIpfsNft.sol:RandomIpfsNft",
        "label": "s_vrfCoordinator",
        "offset": 0,
        "slot": "2",
        "type": "t_contract(IVRFCoordinatorV2Plus)380"
      },
      {
        "astId": 727,
        "contract": "contracts/RandomIpfsNft.sol:RandomIpfsNft",
        "label": "_name",
        "offset": 0,
        "slot": "3",
        "type": "t_string_storage"
      },
      {
        "astId": 729,
        "contract": "contracts/RandomIpfsNft.sol:RandomIpfsNft",
        "label": "_symbol",
        "offset": 0,
        "slot": "4",
        "type": "t_string_storage"
      },
      {
        "astId": 733,
        "contract": "contracts/RandomIpfsNft.sol:RandomIpfsNft",
        "label": "_owners",
        "offset": 0,
        "slot": "5",
        "type": "t_mapping(t_uint256,t_address)"
      },
      {
        "astId": 737,
        "contract": "contracts/RandomIpfsNft.sol:RandomIpfsNft",
        "label": "_balances",
        "offset": 0,
        "slot": "6",
        "type": "t_mapping(t_address,t_uint256)"
      },
      {
        "astId": 741,
        "contract": "contracts/RandomIpfsNft.sol:RandomIpfsNft",
        "label": "_tokenApprovals",
        "offset": 0,
        "slot": "7",
        "type": "t_mapping(t_uint256,t_address)"
      },
      {
        "astId": 747,
        "contract": "contracts/RandomIpfsNft.sol:RandomIpfsNft",
        "label": "_operatorApprovals",
        "offset": 0,
        "slot": "8",
        "type": "t_mapping(t_address,t_mapping(t_address,t_bool))"
      },
      {
        "astId": 1814,
        "contract": "contracts/RandomIpfsNft.sol:RandomIpfsNft",
        "label": "_tokenURIs",
        "offset": 0,
        "slot": "9",
        "type": "t_mapping(t_uint256,t_string_storage)"
      },
      {
        "astId": 7107,
        "contract": "contracts/RandomIpfsNft.sol:RandomIpfsNft",
        "label": "s_subscriptionId",
        "offset": 0,
        "slot": "10",
        "type": "t_uint256"
      },
      {
        "astId": 7111,
        "contract": "contracts/RandomIpfsNft.sol:RandomIpfsNft",
        "label": "s_tokenCounter",
        "offset": 0,
        "slot": "11",
        "type": "t_uint256"
      },
      {
        "astId": 7117,
        "contract": "contracts/RandomIpfsNft.sol:RandomIpfsNft",
        "label": "s_tokenURIs",
        "offset": 0,
        "slot": "12",
        "type": "t_array(t_string_storage)dyn_storage"
      },
      {
        "astId": 7120,
        "contract": "contracts/RandomIpfsNft.sol:RandomIpfsNft",
        "label": "KEY_HASH",
        "offset": 0,
        "slot": "13",
        "type": "t_bytes32"
      },
      {
        "astId": 7124,
        "contract": "contracts/RandomIpfsNft.sol:RandomIpfsNft",
        "label": "s_requestIdToSender",
        "offset": 0,
        "slot": "14",
        "type": "t_mapping(t_uint256,t_address)"
      }
    ],
    "types": {
      "t_address": {
        "encoding": "inplace",
        "label": "address",
        "numberOfBytes": "20"
      },
      "t_array(t_string_storage)dyn_storage": {
        "base": "t_string_storage",
        "encoding": "dynamic_array",
        "label": "string[]",
        "numberOfBytes": "32"
      },
      "t_bool": {
        "encoding": "inplace",
        "label": "bool",
        "numberOfBytes": "1"
      },
      "t_bytes32": {
        "encoding": "inplace",
        "label": "bytes32",
        "numberOfBytes": "32"
      },
      "t_contract(IVRFCoordinatorV2Plus)380": {
        "encoding": "inplace",
        "label": "contract IVRFCoordinatorV2Plus",
        "numberOfBytes": "20"
      },
      "t_mapping(t_address,t_bool)": {
        "encoding": "mapping",
        "key": "t_address",
        "label": "mapping(address => bool)",
        "numberOfBytes": "32",
        "value": "t_bool"
      },
      "t_mapping(t_address,t_mapping(t_address,t_bool))": {
        "encoding": "mapping",
        "key": "t_address",
        "label": "mapping(address => mapping(address => bool))",
        "numberOfBytes": "32",
        "value": "t_mapping(t_address,t_bool)"
      },
      "t_mapping(t_address,t_uint256)": {
        "encoding": "mapping",
        "key": "t_address",
        "label": "mapping(address => uint256)",
        "numberOfBytes": "32",
        "value": "t_uint256"
      },
      "t_mapping(t_uint256,t_address)": {
        "encoding": "mapping",
        "key": "t_uint256",
        "label": "mapping(uint256 => address)",
        "numberOfBytes": "32",
        "value": "t_address"
      },
      "t_mapping(t_uint256,t_string_storage)": {
        "encoding": "mapping",
        "key": "t_uint256",
        "label": "mapping(uint256 => string)",
        "numberOfBytes": "32",
        "value": "t_string_storage"
      },
      "t_string_storage": {
        "encoding": "bytes",
        "label": "string",
        "numberOfBytes": "32"
      },
      "t_uint256": {
        "encoding": "inplace",
        "label": "uint256",
        "numberOfBytes": "32"
      }
    }
  }
}